{
	"data": {
		"bytecode": {
			"linkReferences": {},
			"object": "6080604052600480546001600160a01b031990811673d5436d6e0c7791761a751eeb5eabc81e70b193fa90811790925560058054821673170f9d2a442cd78f7b2d0694dd012bbd022005151790556006805490911690911790556a52b7d2dcc80cd2e400000060078190556200007890606490620005b8565b60089081556040805180820190915281815267576f68706544616f60c01b6020909101908152620000ad9160099190620004e0565b5060408051808201909152600580825264504541434560d81b6020909201918252620000dc91600a91620004e0565b50600b8054601260ff1990911681179091556007600c819055600d8190556001600e819055600f81905560108190556011819055918290556013919091556015805462ffffff60a81b19166201000160a81b1790556a52b7d2dcc80cd2e4000000601655600a601781905590546103e8916200015891620005db565b620001649190620005b8565b60185569021e19e0c9bab24000006019556000601a55601c805460ff191660011790556002601e553480156200019957600080fd5b50620001a53362000490565b60007310ed43c718714eb63d5aa57b78b54704e256024e9050806001600160a01b031663c45a01556040518163ffffffff1660e01b815260040160206040518083038186803b158015620001f857600080fd5b505afa1580156200020d573d6000803e3d6000fd5b505050506040513d601f19601f8201168201806040525081019062000233919062000586565b6001600160a01b031663c9c6539630836001600160a01b031663ad5c46486040518163ffffffff1660e01b815260040160206040518083038186803b1580156200027c57600080fd5b505afa15801562000291573d6000803e3d6000fd5b505050506040513d601f19601f82011682018060405250810190620002b7919062000586565b6040516001600160e01b031960e085901b1681526001600160a01b03928316600482015291166024820152604401602060405180830381600087803b1580156200030057600080fd5b505af115801562000315573d6000803e3d6000fd5b505050506040513d601f19601f820116820180604052508101906200033b919062000586565b601580546001600160a01b03199081166001600160a01b039384161790915560148054909116918316919091179055600160036000620003783390565b6001600160a01b03908116825260208083019390935260409182016000908120805495151560ff199687161790553081526003909352818320805485166001908117909155600654821684528284208054861682179055600554909116835291208054909216179055600854600754620003f39190620005fd565b33600081815260016020526040808220939093556008546005546001600160a01b031682529281208390556007549192909160008051602062002de4833981519152916200044191620005fd565b60405190815260200160405180910390a36005546008546040519081526001600160a01b039091169060009060008051602062002de48339815191529060200160405180910390a3506200066a565b600080546001600160a01b038381166001600160a01b0319831681178455604051919092169283917f8be0079c531659141344cd1fd0a4f28419497f9722a3daafe3b4186f6b6457e09190a35050565b828054620004ee9062000617565b90600052602060002090601f0160209004810192826200051257600085556200055d565b82601f106200052d57805160ff19168380011785556200055d565b828001600101855582156200055d579182015b828111156200055d57825182559160200191906001019062000540565b506200056b9291506200056f565b5090565b5b808211156200056b576000815560010162000570565b6000602082840312156200059957600080fd5b81516001600160a01b0381168114620005b157600080fd5b9392505050565b600082620005d657634e487b7160e01b600052601260045260246000fd5b500490565b6000816000190483118215151615620005f857620005f862000654565b500290565b60008282101562000612576200061262000654565b500390565b600181811c908216806200062c57607f821691505b602082108114156200064e57634e487b7160e01b600052602260045260246000fd5b50919050565b634e487b7160e01b600052601160045260246000fd5b61276a806200067a6000396000f3fe6080604052600436106101e75760003560e01c806370a0823111610102578063c49b9a8011610095578063ec28438a11610064578063ec28438a146105c9578063edf9b336146105e9578063f2fde38b14610609578063fce0f9281461062957600080fd5b8063c49b9a8014610523578063c9c9afc514610543578063dd62ed3e14610563578063ea2f0b37146105a957600080fd5b806395d89b41116100d157806395d89b41146104ae578063a457c2d7146104c3578063a9059cbb146104e3578063afa4f3b21461050357600080fd5b806370a0823114610429578063715018a614610449578063893d20e81461045e5780638da5cb5b1461049057600080fd5b806342966c681161017a578063679adc8811610149578063679adc88146103a95780636a9c5ca2146103c95780636e16de11146103e95780636fcba3771461040957600080fd5b806342966c6814610310578063437823ec146103305780635342acb41461035057806354ece0e31461038957600080fd5b806323b872dd116101b657806323b872dd1461028f578063313ce567146102af57806333df542a146102d157806339509351146102f057600080fd5b806306fdde03146101f35780630888d6921461021e578063095ea7b31461024057806318160ddd1461027057600080fd5b366101ee57005b600080fd5b3480156101ff57600080fd5b50610208610649565b60405161021591906124c9565b60405180910390f35b34801561022a57600080fd5b5061023e61023936600461242e565b6106db565b005b34801561024c57600080fd5b5061026061025b366004612402565b61072c565b6040519015158152602001610215565b34801561027c57600080fd5b506007545b604051908152602001610215565b34801561029b57600080fd5b506102606102aa3660046123c1565b610742565b3480156102bb57600080fd5b50600b5460405160ff9091168152602001610215565b3480156102dd57600080fd5b50601554600160b81b900460ff16610260565b3480156102fc57600080fd5b5061026061030b366004612402565b6107ab565b34801561031c57600080fd5b5061023e61032b366004612450565b6107e1565b34801561033c57600080fd5b5061023e61034b36600461234e565b6107ee565b34801561035c57600080fd5b5061026061036b36600461234e565b6001600160a01b031660009081526003602052604090205460ff1690565b34801561039557600080fd5b5061023e6103a436600461242e565b610873565b3480156103b557600080fd5b5061023e6103c436600461234e565b610909565b3480156103d557600080fd5b5061023e6103e436600461242e565b6109cb565b3480156103f557600080fd5b5061023e610404366004612450565b610a73565b34801561041557600080fd5b5061023e610424366004612497565b610ae1565b34801561043557600080fd5b5061028161044436600461234e565b610ba3565b34801561045557600080fd5b5061023e610bbe565b34801561046a57600080fd5b506000546001600160a01b03165b6040516001600160a01b039091168152602001610215565b34801561049c57600080fd5b506000546001600160a01b0316610478565b3480156104ba57600080fd5b50610208610bf4565b3480156104cf57600080fd5b506102606104de366004612402565b610c03565b3480156104ef57600080fd5b506102606104fe366004612402565b610c52565b34801561050f57600080fd5b5061023e61051e366004612450565b610c5f565b34801561052f57600080fd5b5061023e61053e36600461242e565b610ccd565b34801561054f57600080fd5b5061023e61055e36600461234e565b610d44565b34801561056f57600080fd5b5061028161057e366004612388565b6001600160a01b03918216600090815260026020908152604080832093909416825291909152205490565b3480156105b557600080fd5b5061023e6105c436600461234e565b610dee565b3480156105d557600080fd5b5061023e6105e4366004612450565b610e69565b3480156105f557600080fd5b5061023e610604366004612450565b610eea565b34801561061557600080fd5b5061023e61062436600461234e565b610f6b565b34801561063557600080fd5b5061023e61064436600461234e565b611003565b6060600980546106589061266b565b80601f01602080910402602001604051908101604052809291908181526020018280546106849061266b565b80156106d15780601f106106a6576101008083540402835291602001916106d1565b820191906000526020600020905b8154815290600101906020018083116106b457829003601f168201915b5050505050905090565b6000546001600160a01b0316331461070e5760405162461bcd60e51b81526004016107059061251e565b60405180910390fd5b60158054911515600160b01b0260ff60b01b19909216919091179055565b60006107393384846110ad565b50600192915050565b600061074f8484846111d2565b6107a1843361079c856040518060600160405280602881526020016126e8602891396001600160a01b038a16600090815260026020908152604080832033845290915290205491906119ae565b6110ad565b5060019392505050565b3360008181526002602090815260408083206001600160a01b0387168452909152812054909161073991859061079c90866119da565b6107eb33826119ed565b50565b6000546001600160a01b031633146108185760405162461bcd60e51b81526004016107059061251e565b6001600160a01b038116600081815260036020908152604091829020805460ff1916600117905590519182527ff1d6512ec7550bf605a5a38910e48fb6a57938ed74a5afa01753fa023001005c91015b60405180910390a150565b6000546001600160a01b0316331461089d5760405162461bcd60e51b81526004016107059061251e565b601c5460ff16151581151514156108f65760405162461bcd60e51b815260206004820152601b60248201527f63616e27742073657420746f207465682073616d652076616c756500000000006044820152606401610705565b601c805460ff1916911515919091179055565b6000546001600160a01b031633146109335760405162461bcd60e51b81526004016107059061251e565b6005546001600160a01b03828116911614156109915760405162461bcd60e51b815260206004820152601d60248201527f63616e27742073657420746f207468652073616d6520616464726573730000006044820152606401610705565b600580546001600160a01b039092166001600160a01b0319909216821790556000908152600360205260409020805460ff19166001179055565b6000546001600160a01b031633146109f55760405162461bcd60e51b81526004016107059061251e565b60155460ff600160b81b9091041615158115151415610a265760405162461bcd60e51b815260040161070590612553565b60158054821515600160b81b0260ff60b81b199091161790556040517fc978afc13ae5d7445f4b073be72c8f20e68be6e6db47d7f7905dacf6d931d2949061086890831515815260200190565b6000546001600160a01b03163314610a9d5760405162461bcd60e51b81526004016107059061251e565b80601a541415610aac57600080fd5b601a8190556040518181527fa1549e44f9e72c53c056ec73782f5bb2b8c2950b3f11929b746d641f91048d7f90602001610868565b6000546001600160a01b03163314610b0b5760405162461bcd60e51b81526004016107059061251e565b83600c54141580610b1e575082600e5414155b80610b2b57508160125414155b80610b3857508060105414155b610b4157600080fd5b600c849055600e839055601282905560108190556040805185815260208101859052908101839052606081018290527f5c3aee3d65f7eb02cded951435d06b06ef307bc7f57b98975c4a41dc116e711c9060800160405180910390a150505050565b6001600160a01b031660009081526001602052604090205490565b6000546001600160a01b03163314610be85760405162461bcd60e51b81526004016107059061251e565b610bf26000611b33565b565b6060600a80546106589061266b565b6000610739338461079c85604051806060016040528060258152602001612710602591393360009081526002602090815260408083206001600160a01b038d16845290915290205491906119ae565b60006107393384846111d2565b6000546001600160a01b03163314610c895760405162461bcd60e51b81526004016107059061251e565b806019541415610c9857600080fd5b60198190556040518181527fe82283d0f679a15d3811ecbaa8b6a8afb1b110e22daa33b359c37bcae5a11e4890602001610868565b6000546001600160a01b03163314610cf75760405162461bcd60e51b81526004016107059061251e565b60158054821515600160a81b0260ff60a81b199091161790556040517f53726dfcaf90650aa7eb35524f4d3220f07413c8d6cb404cc8c18bf5591bc1599061086890831515815260200190565b6000546001600160a01b03163314610d6e5760405162461bcd60e51b81526004016107059061251e565b6006546001600160a01b0382811691161415610dcc5760405162461bcd60e51b815260206004820152601960248201527f63616e27742073657420746f2073616d652061646472657373000000000000006044820152606401610705565b600680546001600160a01b0319166001600160a01b0392909216919091179055565b6000546001600160a01b03163314610e185760405162461bcd60e51b81526004016107059061251e565b6001600160a01b038116600081815260036020908152604091829020805460ff1916905590519182527f976ff2b01cb494434f270c12da5e45ac90c699b50c2312e2bb2fead2466aa4fe9101610868565b6000546001600160a01b03163314610e935760405162461bcd60e51b81526004016107059061251e565b806016541415610eb55760405162461bcd60e51b815260040161070590612553565b60168190556040518181527f9f5e246af7c18550ffbb625af523d90c3be8c2f4c33faede31f8005c517200fa90602001610868565b6000546001600160a01b03163314610f145760405162461bcd60e51b81526004016107059061251e565b806017541415610f365760405162461bcd60e51b815260040161070590612553565b60178190556040518181527f51e3fec885ce1a8053160faf7fb820d2afebd30d0018f733b15615315d1745ad90602001610868565b6000546001600160a01b03163314610f955760405162461bcd60e51b81526004016107059061251e565b6001600160a01b038116610ffa5760405162461bcd60e51b815260206004820152602660248201527f4f776e61626c653a206e6577206f776e657220697320746865207a65726f206160448201526564647265737360d01b6064820152608401610705565b6107eb81611b33565b6000546001600160a01b0316331461102d5760405162461bcd60e51b81526004016107059061251e565b6004546001600160a01b038281169116141561108b5760405162461bcd60e51b815260206004820152601d60248201527f63616e27742073657420746f207468652073616d6520616464726573730000006044820152606401610705565b600480546001600160a01b0319166001600160a01b0392909216919091179055565b6001600160a01b03831661110f5760405162461bcd60e51b8152602060048201526024808201527f45524332303a20617070726f76652066726f6d20746865207a65726f206164646044820152637265737360e01b6064820152608401610705565b6001600160a01b0382166111705760405162461bcd60e51b815260206004820152602260248201527f45524332303a20617070726f766520746f20746865207a65726f206164647265604482015261737360f01b6064820152608401610705565b6001600160a01b0383811660008181526002602090815260408083209487168084529482529182902085905590518481527f8c5be1e5ebec7d5bd14f71427d1e84f3dd0314c0f7b2291e5b200ac8c7c3b92591015b60405180910390a3505050565b6001600160a01b0383166112365760405162461bcd60e51b815260206004820152602560248201527f45524332303a207472616e736665722066726f6d20746865207a65726f206164604482015264647265737360d81b6064820152608401610705565b6001600160a01b0382166112985760405162461bcd60e51b815260206004820152602360248201527f45524332303a207472616e7366657220746f20746865207a65726f206164647260448201526265737360e81b6064820152608401610705565b600081116112fa5760405162461bcd60e51b815260206004820152602960248201527f5472616e7366657220616d6f756e74206d7573742062652067726561746572206044820152687468616e207a65726f60b81b6064820152608401610705565b6015546001600160a01b0383811691161480156113295750601554611327906001600160a01b0316610ba3565b155b156113b257601554600160b01b900460ff1615156001146113b25760405162461bcd60e51b815260206004820152603c60248201527f596f7520617265206e6f7420616c6c6f77656420746f20616464206c6971756960448201527f64697479206265666f72652070726573616c6520697320656e646564000000006064820152608401610705565b601d541580156113cf57506015546001600160a01b038381169116145b156113f25760006113df84610ba3565b116113e957600080fd5b6113f243601d55565b6001600160a01b03831660009081526003602052604090205460ff1615801561143457506001600160a01b03821660009081526003602052604090205460ff16155b80156114555750601554600090611453906001600160a01b0316610ba3565b115b801561146b5750601554600160a01b900460ff16155b801561148557506014546001600160a01b03848116911614155b80156114b557506015546001600160a01b03848116911614806114b557506015546001600160a01b038381169116145b1561151d5760165481111561151d5760405162461bcd60e51b815260206004820152602860248201527f5472616e7366657220616d6f756e74206578636565647320746865206d6178546044820152673c20b6b7bab73a1760c11b6064820152608401610705565b6015546001600160a01b038381169116148015906115445750601554600160b81b900460ff165b801561158c57506001600160a01b03831660009081526003602052604090205460ff16158061158c57506001600160a01b03821660009081526003602052604090205460ff16155b1561162257600061159c83610ba3565b6018549091506115ac83836125fb565b11156116205760405162461bcd60e51b815260206004820152603d60248201527f546f74616c20486f6c64696e672069732063757272656e746c79206c696d697460448201527f65642c20796f752063616e206e6f74206275792074686174206d7563680000006064820152608401610705565b505b600061162d30610ba3565b9050601654811061163d57506016545b600060195482101590506000600c54601054600e5460125461165f91906125fb565b61166991906125fb565b61167391906125fb565b905081801561168c5750601554600160a01b900460ff16155b80156116a657506015546001600160a01b03878116911614155b80156116bb5750601554600160a81b900460ff165b80156116d65750601a54601b546116d291906125fb565b4210155b1561174157600061170e82611708601054600c54600e546116f791906125fb565b61170191906125fb565b8790611b83565b90611b8f565b905061171981611b9b565b61173b306117368461170860125489611b8390919063ffffffff16565b6119ed565b5042601b555b601554600090819061175b906001600160a01b0316610ba3565b11801561178c57506015546001600160a01b038881169116148061178c57506015546001600160a01b038781169116145b15611795575060015b6001600160a01b03871660009081526003602052604090205460ff16806117d457506001600160a01b03861660009081526003602052604090205460ff165b156117dd575060005b43601d5460036117ed91906125fb565b1180156117fc5750601c5460ff165b80156118055750805b15611999576001600160a01b03871660009081526001602052604090205461182d9086611ec0565b6001600160a01b03881660009081526001602052604090205561185a876117366064611708896054611b83565b61188e61186d6064611708886005611b83565b6004546001600160a01b0316600090815260016020526040902054906119da565b6004546001600160a01b03166000908152600160208190526040909120919091556118e6906118c590606490611708908990611b83565b6005546001600160a01b0316600090815260016020526040902054906119da565b6005546001600160a01b0316600090815260016020526040902055611933611914606461170888600a611b83565b6001600160a01b038816600090815260016020526040902054906119da565b6001600160a01b0380881660008181526001602052604090209290925588167fddf252ad1be2c89b69c2b068fc378daa952ba7f163c4a11628f55a4df523b3ef61198360646117088a600a611b83565b60405190815260200160405180910390a36119a5565b6119a587878784611ecc565b50505050505050565b600081848411156119d25760405162461bcd60e51b815260040161070591906124c9565b505050900390565b60006119e682846125fb565b9392505050565b6001600160a01b038216611a4d5760405162461bcd60e51b815260206004820152602160248201527f45524332303a206275726e2066726f6d20746865207a65726f206164647265736044820152607360f81b6064820152608401610705565b6001600160a01b03821660009081526001602052604090205481811015611ac15760405162461bcd60e51b815260206004820152602260248201527f45524332303a206275726e20616d6f756e7420657863656564732062616c616e604482015261636560f01b6064820152608401610705565b6001600160a01b0383166000908152600160205260408120838303905560078054849290611af0908490612654565b90915550506040518281526000906001600160a01b038516907fddf252ad1be2c89b69c2b068fc378daa952ba7f163c4a11628f55a4df523b3ef906020016111c5565b600080546001600160a01b038381166001600160a01b0319831681178455604051919092169283917f8be0079c531659141344cd1fd0a4f28419497f9722a3daafe3b4186f6b6457e09190a35050565b60006119e68284612635565b60006119e68284612613565b6015805460ff60a01b1916600160a01b179055601054600c54600e54600092611be7926002926117089291611bcf916125fb565b611bd991906125fb565b600e54611708908790611b83565b90506000611bf58383611ec0565b905047611c018261207c565b6000611c0d4783611ec0565b600454600c54600e546010549394506000936001600160a01b0390931692611c519291611c39916125fb565b611c4391906125fb565b600c54611708908690611b83565b604051600081818185875af1925050503d8060008114611c8d576040519150601f19603f3d011682016040523d82523d6000602084013e611c92565b606091505b505090508015611d05577f773fa29cc313bc3704ac993cea64d1778949027d1cb49a4f04ead14cad8f9aa386611cec600c54600e54601054611cd491906125fb565b611cde91906125fb565b600c54611708908790611b83565b6040805192835260208301919091520160405180910390a15b600554600c54600e546010546000936001600160a01b031692611d46929091611d2e91906125fb565b611d3891906125fb565b601054611708908790611b83565b604051600081818185875af1925050503d8060008114611d82576040519150601f19603f3d011682016040523d82523d6000602084013e611d87565b606091505b505090508015611dfa577f773fa29cc313bc3704ac993cea64d1778949027d1cb49a4f04ead14cad8f9aa387611de1600c54600e54601054611dc991906125fb565b611dd391906125fb565b601054611708908890611b83565b6040805192835260208301919091520160405180910390a15b611e3686611e316002611708600c54600e54601054611e1991906125fb565b611e2391906125fb565b600e54611708908a90611b83565b6121e5565b7ffa47f5de846aec37740ff146a37f2159977fde1439426c7c3c4ca798f1a740448787611e8c6002611708600c54600e54601054611e7491906125fb565b611e7e91906125fb565b600e54611708908b90611b83565b6040805193845260208401929092529082015260600160405180910390a150506015805460ff60a01b191690555050505050565b60006119e68284612654565b80611ed957611ed96122a1565b6015546001600160a01b038581169116148015611ef35750805b15611f2557600c8054600d55600e8054600f556010805460115560128054601355600590935560019182905581905590555b6000611f30836122fc565b6015549091506001600160a01b038681169116148015611f4d5750815b15611f6f57611f6f600d54600c55600f54600e55601154601055601354601255565b6001600160a01b038516600090815260016020526040902054611f929084611ec0565b6001600160a01b038087166000908152600160205260408082209390935590861681522054611fc190826119da565b6001600160a01b038516600090815260016020526040902055611ffd611fe78483611ec0565b30600090815260016020526040902054906119da565b3060009081526001602090815260409182902092909255518281526001600160a01b0386811692908816917fddf252ad1be2c89b69c2b068fc378daa952ba7f163c4a11628f55a4df523b3ef910160405180910390a38161207557612075600d54600c55600f54600e55601154601055601354601255565b5050505050565b60408051600280825260608201835260009260208301908036833701905050905030816000815181106120b1576120b16126bc565b6001600160a01b03928316602091820292909201810191909152601454604080516315ab88c960e31b81529051919093169263ad5c4648926004808301939192829003018186803b15801561210557600080fd5b505afa158015612119573d6000803e3d6000fd5b505050506040513d601f19601f8201168201806040525081019061213d919061236b565b81600181518110612150576121506126bc565b6001600160a01b03928316602091820292909201015260145461217691309116846110ad565b60145460405163791ac94760e01b81526001600160a01b039091169063791ac947906121af90859060009086903090429060040161258a565b600060405180830381600087803b1580156121c957600080fd5b505af11580156121dd573d6000803e3d6000fd5b505050505050565b6014546121fd9030906001600160a01b0316846110ad565b60145460065460405163f305d71960e01b81523060048201526024810185905260006044820181905260648201526001600160a01b0391821660848201524260a482015291169063f305d71990839060c4016060604051808303818588803b15801561226857600080fd5b505af115801561227c573d6000803e3d6000fd5b50505050506040513d601f19601f820116820180604052508101906120759190612469565b600c541580156122b15750600e54155b80156122bd5750601254155b80156122c95750601054155b156122d057565b600c8054600d55600e8054600f5560108054601155601280546013556000938490559183905582905555565b6000806123386064611708601054601254600e54600c5461231d91906125fb565b61232791906125fb565b61233191906125fb565b8690611b83565b905060006123468483611ec0565b949350505050565b60006020828403121561236057600080fd5b81356119e6816126d2565b60006020828403121561237d57600080fd5b81516119e6816126d2565b6000806040838503121561239b57600080fd5b82356123a6816126d2565b915060208301356123b6816126d2565b809150509250929050565b6000806000606084860312156123d657600080fd5b83356123e1816126d2565b925060208401356123f1816126d2565b929592945050506040919091013590565b6000806040838503121561241557600080fd5b8235612420816126d2565b946020939093013593505050565b60006020828403121561244057600080fd5b813580151581146119e657600080fd5b60006020828403121561246257600080fd5b5035919050565b60008060006060848603121561247e57600080fd5b8351925060208401519150604084015190509250925092565b600080600080608085870312156124ad57600080fd5b5050823594602084013594506040840135936060013592509050565b600060208083528351808285015260005b818110156124f6578581018301518582016040015282016124da565b81811115612508576000604083870101525b50601f01601f1916929092016040019392505050565b6020808252818101527f4f776e61626c653a2063616c6c6572206973206e6f7420746865206f776e6572604082015260600190565b6020808252601b908201527f63616e27742073657420746f207468652073616d652076616c75650000000000604082015260600190565b600060a082018783526020878185015260a0604085015281875180845260c086019150828901935060005b818110156125da5784516001600160a01b0316835293830193918301916001016125b5565b50506001600160a01b03969096166060850152505050608001529392505050565b6000821982111561260e5761260e6126a6565b500190565b60008261263057634e487b7160e01b600052601260045260246000fd5b500490565b600081600019048311821515161561264f5761264f6126a6565b500290565b600082821015612666576126666126a6565b500390565b600181811c9082168061267f57607f821691505b602082108114156126a057634e487b7160e01b600052602260045260246000fd5b50919050565b634e487b7160e01b600052601160045260246000fd5b634e487b7160e01b600052603260045260246000fd5b6001600160a01b03811681146107eb57600080fdfe45524332303a207472616e7366657220616d6f756e74206578636565647320616c6c6f77616e636545524332303a2064656372656173656420616c6c6f77616e63652062656c6f77207a65726fa264697066735822122061b9de05a71d3142de48621f3f60b122f6c8600f48692c06e3114539d8f6689964736f6c63430008070033ddf252ad1be2c89b69c2b068fc378daa952ba7f163c4a11628f55a4df523b3ef",
			"opcodes": "PUSH1 0x80 PUSH1 0x40 MSTORE PUSH1 0x4 DUP1 SLOAD PUSH1 0x1 PUSH1 0x1 PUSH1 0xA0 SHL SUB NOT SWAP1 DUP2 AND PUSH20 0xD5436D6E0C7791761A751EEB5EABC81E70B193FA SWAP1 DUP2 OR SWAP1 SWAP3 SSTORE PUSH1 0x5 DUP1 SLOAD DUP3 AND PUSH20 0x170F9D2A442CD78F7B2D0694DD012BBD02200515 OR SWAP1 SSTORE PUSH1 0x6 DUP1 SLOAD SWAP1 SWAP2 AND SWAP1 SWAP2 OR SWAP1 SSTORE PUSH11 0x52B7D2DCC80CD2E4000000 PUSH1 0x7 DUP2 SWAP1 SSTORE PUSH3 0x78 SWAP1 PUSH1 0x64 SWAP1 PUSH3 0x5B8 JUMP JUMPDEST PUSH1 0x8 SWAP1 DUP2 SSTORE PUSH1 0x40 DUP1 MLOAD DUP1 DUP3 ADD SWAP1 SWAP2 MSTORE DUP2 DUP2 MSTORE PUSH8 0x576F68706544616F PUSH1 0xC0 SHL PUSH1 0x20 SWAP1 SWAP2 ADD SWAP1 DUP2 MSTORE PUSH3 0xAD SWAP2 PUSH1 0x9 SWAP2 SWAP1 PUSH3 0x4E0 JUMP JUMPDEST POP PUSH1 0x40 DUP1 MLOAD DUP1 DUP3 ADD SWAP1 SWAP2 MSTORE PUSH1 0x5 DUP1 DUP3 MSTORE PUSH5 0x5045414345 PUSH1 0xD8 SHL PUSH1 0x20 SWAP1 SWAP3 ADD SWAP2 DUP3 MSTORE PUSH3 0xDC SWAP2 PUSH1 0xA SWAP2 PUSH3 0x4E0 JUMP JUMPDEST POP PUSH1 0xB DUP1 SLOAD PUSH1 0x12 PUSH1 0xFF NOT SWAP1 SWAP2 AND DUP2 OR SWAP1 SWAP2 SSTORE PUSH1 0x7 PUSH1 0xC DUP2 SWAP1 SSTORE PUSH1 0xD DUP2 SWAP1 SSTORE PUSH1 0x1 PUSH1 0xE DUP2 SWAP1 SSTORE PUSH1 0xF DUP2 SWAP1 SSTORE PUSH1 0x10 DUP2 SWAP1 SSTORE PUSH1 0x11 DUP2 SWAP1 SSTORE SWAP2 DUP3 SWAP1 SSTORE PUSH1 0x13 SWAP2 SWAP1 SWAP2 SSTORE PUSH1 0x15 DUP1 SLOAD PUSH3 0xFFFFFF PUSH1 0xA8 SHL NOT AND PUSH3 0x10001 PUSH1 0xA8 SHL OR SWAP1 SSTORE PUSH11 0x52B7D2DCC80CD2E4000000 PUSH1 0x16 SSTORE PUSH1 0xA PUSH1 0x17 DUP2 SWAP1 SSTORE SWAP1 SLOAD PUSH2 0x3E8 SWAP2 PUSH3 0x158 SWAP2 PUSH3 0x5DB JUMP JUMPDEST PUSH3 0x164 SWAP2 SWAP1 PUSH3 0x5B8 JUMP JUMPDEST PUSH1 0x18 SSTORE PUSH10 0x21E19E0C9BAB2400000 PUSH1 0x19 SSTORE PUSH1 0x0 PUSH1 0x1A SSTORE PUSH1 0x1C DUP1 SLOAD PUSH1 0xFF NOT AND PUSH1 0x1 OR SWAP1 SSTORE PUSH1 0x2 PUSH1 0x1E SSTORE CALLVALUE DUP1 ISZERO PUSH3 0x199 JUMPI PUSH1 0x0 DUP1 REVERT JUMPDEST POP PUSH3 0x1A5 CALLER PUSH3 0x490 JUMP JUMPDEST PUSH1 0x0 PUSH20 0x10ED43C718714EB63D5AA57B78B54704E256024E SWAP1 POP DUP1 PUSH1 0x1 PUSH1 0x1 PUSH1 0xA0 SHL SUB AND PUSH4 0xC45A0155 PUSH1 0x40 MLOAD DUP2 PUSH4 0xFFFFFFFF AND PUSH1 0xE0 SHL DUP2 MSTORE PUSH1 0x4 ADD PUSH1 0x20 PUSH1 0x40 MLOAD DUP1 DUP4 SUB DUP2 DUP7 DUP1 EXTCODESIZE ISZERO DUP1 ISZERO PUSH3 0x1F8 JUMPI PUSH1 0x0 DUP1 REVERT JUMPDEST POP GAS STATICCALL ISZERO DUP1 ISZERO PUSH3 0x20D JUMPI RETURNDATASIZE PUSH1 0x0 DUP1 RETURNDATACOPY RETURNDATASIZE PUSH1 0x0 REVERT JUMPDEST POP POP POP POP PUSH1 0x40 MLOAD RETURNDATASIZE PUSH1 0x1F NOT PUSH1 0x1F DUP3 ADD AND DUP3 ADD DUP1 PUSH1 0x40 MSTORE POP DUP2 ADD SWAP1 PUSH3 0x233 SWAP2 SWAP1 PUSH3 0x586 JUMP JUMPDEST PUSH1 0x1 PUSH1 0x1 PUSH1 0xA0 SHL SUB AND PUSH4 0xC9C65396 ADDRESS DUP4 PUSH1 0x1 PUSH1 0x1 PUSH1 0xA0 SHL SUB AND PUSH4 0xAD5C4648 PUSH1 0x40 MLOAD DUP2 PUSH4 0xFFFFFFFF AND PUSH1 0xE0 SHL DUP2 MSTORE PUSH1 0x4 ADD PUSH1 0x20 PUSH1 0x40 MLOAD DUP1 DUP4 SUB DUP2 DUP7 DUP1 EXTCODESIZE ISZERO DUP1 ISZERO PUSH3 0x27C JUMPI PUSH1 0x0 DUP1 REVERT JUMPDEST POP GAS STATICCALL ISZERO DUP1 ISZERO PUSH3 0x291 JUMPI RETURNDATASIZE PUSH1 0x0 DUP1 RETURNDATACOPY RETURNDATASIZE PUSH1 0x0 REVERT JUMPDEST POP POP POP POP PUSH1 0x40 MLOAD RETURNDATASIZE PUSH1 0x1F NOT PUSH1 0x1F DUP3 ADD AND DUP3 ADD DUP1 PUSH1 0x40 MSTORE POP DUP2 ADD SWAP1 PUSH3 0x2B7 SWAP2 SWAP1 PUSH3 0x586 JUMP JUMPDEST PUSH1 0x40 MLOAD PUSH1 0x1 PUSH1 0x1 PUSH1 0xE0 SHL SUB NOT PUSH1 0xE0 DUP6 SWAP1 SHL AND DUP2 MSTORE PUSH1 0x1 PUSH1 0x1 PUSH1 0xA0 SHL SUB SWAP3 DUP4 AND PUSH1 0x4 DUP3 ADD MSTORE SWAP2 AND PUSH1 0x24 DUP3 ADD MSTORE PUSH1 0x44 ADD PUSH1 0x20 PUSH1 0x40 MLOAD DUP1 DUP4 SUB DUP2 PUSH1 0x0 DUP8 DUP1 EXTCODESIZE ISZERO DUP1 ISZERO PUSH3 0x300 JUMPI PUSH1 0x0 DUP1 REVERT JUMPDEST POP GAS CALL ISZERO DUP1 ISZERO PUSH3 0x315 JUMPI RETURNDATASIZE PUSH1 0x0 DUP1 RETURNDATACOPY RETURNDATASIZE PUSH1 0x0 REVERT JUMPDEST POP POP POP POP PUSH1 0x40 MLOAD RETURNDATASIZE PUSH1 0x1F NOT PUSH1 0x1F DUP3 ADD AND DUP3 ADD DUP1 PUSH1 0x40 MSTORE POP DUP2 ADD SWAP1 PUSH3 0x33B SWAP2 SWAP1 PUSH3 0x586 JUMP JUMPDEST PUSH1 0x15 DUP1 SLOAD PUSH1 0x1 PUSH1 0x1 PUSH1 0xA0 SHL SUB NOT SWAP1 DUP2 AND PUSH1 0x1 PUSH1 0x1 PUSH1 0xA0 SHL SUB SWAP4 DUP5 AND OR SWAP1 SWAP2 SSTORE PUSH1 0x14 DUP1 SLOAD SWAP1 SWAP2 AND SWAP2 DUP4 AND SWAP2 SWAP1 SWAP2 OR SWAP1 SSTORE PUSH1 0x1 PUSH1 0x3 PUSH1 0x0 PUSH3 0x378 CALLER SWAP1 JUMP JUMPDEST PUSH1 0x1 PUSH1 0x1 PUSH1 0xA0 SHL SUB SWAP1 DUP2 AND DUP3 MSTORE PUSH1 0x20 DUP1 DUP4 ADD SWAP4 SWAP1 SWAP4 MSTORE PUSH1 0x40 SWAP2 DUP3 ADD PUSH1 0x0 SWAP1 DUP2 KECCAK256 DUP1 SLOAD SWAP6 ISZERO ISZERO PUSH1 0xFF NOT SWAP7 DUP8 AND OR SWAP1 SSTORE ADDRESS DUP2 MSTORE PUSH1 0x3 SWAP1 SWAP4 MSTORE DUP2 DUP4 KECCAK256 DUP1 SLOAD DUP6 AND PUSH1 0x1 SWAP1 DUP2 OR SWAP1 SWAP2 SSTORE PUSH1 0x6 SLOAD DUP3 AND DUP5 MSTORE DUP3 DUP5 KECCAK256 DUP1 SLOAD DUP7 AND DUP3 OR SWAP1 SSTORE PUSH1 0x5 SLOAD SWAP1 SWAP2 AND DUP4 MSTORE SWAP2 KECCAK256 DUP1 SLOAD SWAP1 SWAP3 AND OR SWAP1 SSTORE PUSH1 0x8 SLOAD PUSH1 0x7 SLOAD PUSH3 0x3F3 SWAP2 SWAP1 PUSH3 0x5FD JUMP JUMPDEST CALLER PUSH1 0x0 DUP2 DUP2 MSTORE PUSH1 0x1 PUSH1 0x20 MSTORE PUSH1 0x40 DUP1 DUP3 KECCAK256 SWAP4 SWAP1 SWAP4 SSTORE PUSH1 0x8 SLOAD PUSH1 0x5 SLOAD PUSH1 0x1 PUSH1 0x1 PUSH1 0xA0 SHL SUB AND DUP3 MSTORE SWAP3 DUP2 KECCAK256 DUP4 SWAP1 SSTORE PUSH1 0x7 SLOAD SWAP2 SWAP3 SWAP1 SWAP2 PUSH1 0x0 DUP1 MLOAD PUSH1 0x20 PUSH3 0x2DE4 DUP4 CODECOPY DUP2 MLOAD SWAP2 MSTORE SWAP2 PUSH3 0x441 SWAP2 PUSH3 0x5FD JUMP JUMPDEST PUSH1 0x40 MLOAD SWAP1 DUP2 MSTORE PUSH1 0x20 ADD PUSH1 0x40 MLOAD DUP1 SWAP2 SUB SWAP1 LOG3 PUSH1 0x5 SLOAD PUSH1 0x8 SLOAD PUSH1 0x40 MLOAD SWAP1 DUP2 MSTORE PUSH1 0x1 PUSH1 0x1 PUSH1 0xA0 SHL SUB SWAP1 SWAP2 AND SWAP1 PUSH1 0x0 SWAP1 PUSH1 0x0 DUP1 MLOAD PUSH1 0x20 PUSH3 0x2DE4 DUP4 CODECOPY DUP2 MLOAD SWAP2 MSTORE SWAP1 PUSH1 0x20 ADD PUSH1 0x40 MLOAD DUP1 SWAP2 SUB SWAP1 LOG3 POP PUSH3 0x66A JUMP JUMPDEST PUSH1 0x0 DUP1 SLOAD PUSH1 0x1 PUSH1 0x1 PUSH1 0xA0 SHL SUB DUP4 DUP2 AND PUSH1 0x1 PUSH1 0x1 PUSH1 0xA0 SHL SUB NOT DUP4 AND DUP2 OR DUP5 SSTORE PUSH1 0x40 MLOAD SWAP2 SWAP1 SWAP3 AND SWAP3 DUP4 SWAP2 PUSH32 0x8BE0079C531659141344CD1FD0A4F28419497F9722A3DAAFE3B4186F6B6457E0 SWAP2 SWAP1 LOG3 POP POP JUMP JUMPDEST DUP3 DUP1 SLOAD PUSH3 0x4EE SWAP1 PUSH3 0x617 JUMP JUMPDEST SWAP1 PUSH1 0x0 MSTORE PUSH1 0x20 PUSH1 0x0 KECCAK256 SWAP1 PUSH1 0x1F ADD PUSH1 0x20 SWAP1 DIV DUP2 ADD SWAP3 DUP3 PUSH3 0x512 JUMPI PUSH1 0x0 DUP6 SSTORE PUSH3 0x55D JUMP JUMPDEST DUP3 PUSH1 0x1F LT PUSH3 0x52D JUMPI DUP1 MLOAD PUSH1 0xFF NOT AND DUP4 DUP1 ADD OR DUP6 SSTORE PUSH3 0x55D JUMP JUMPDEST DUP3 DUP1 ADD PUSH1 0x1 ADD DUP6 SSTORE DUP3 ISZERO PUSH3 0x55D JUMPI SWAP2 DUP3 ADD JUMPDEST DUP3 DUP2 GT ISZERO PUSH3 0x55D JUMPI DUP3 MLOAD DUP3 SSTORE SWAP2 PUSH1 0x20 ADD SWAP2 SWAP1 PUSH1 0x1 ADD SWAP1 PUSH3 0x540 JUMP JUMPDEST POP PUSH3 0x56B SWAP3 SWAP2 POP PUSH3 0x56F JUMP JUMPDEST POP SWAP1 JUMP JUMPDEST JUMPDEST DUP1 DUP3 GT ISZERO PUSH3 0x56B JUMPI PUSH1 0x0 DUP2 SSTORE PUSH1 0x1 ADD PUSH3 0x570 JUMP JUMPDEST PUSH1 0x0 PUSH1 0x20 DUP3 DUP5 SUB SLT ISZERO PUSH3 0x599 JUMPI PUSH1 0x0 DUP1 REVERT JUMPDEST DUP2 MLOAD PUSH1 0x1 PUSH1 0x1 PUSH1 0xA0 SHL SUB DUP2 AND DUP2 EQ PUSH3 0x5B1 JUMPI PUSH1 0x0 DUP1 REVERT JUMPDEST SWAP4 SWAP3 POP POP POP JUMP JUMPDEST PUSH1 0x0 DUP3 PUSH3 0x5D6 JUMPI PUSH4 0x4E487B71 PUSH1 0xE0 SHL PUSH1 0x0 MSTORE PUSH1 0x12 PUSH1 0x4 MSTORE PUSH1 0x24 PUSH1 0x0 REVERT JUMPDEST POP DIV SWAP1 JUMP JUMPDEST PUSH1 0x0 DUP2 PUSH1 0x0 NOT DIV DUP4 GT DUP3 ISZERO ISZERO AND ISZERO PUSH3 0x5F8 JUMPI PUSH3 0x5F8 PUSH3 0x654 JUMP JUMPDEST POP MUL SWAP1 JUMP JUMPDEST PUSH1 0x0 DUP3 DUP3 LT ISZERO PUSH3 0x612 JUMPI PUSH3 0x612 PUSH3 0x654 JUMP JUMPDEST POP SUB SWAP1 JUMP JUMPDEST PUSH1 0x1 DUP2 DUP2 SHR SWAP1 DUP3 AND DUP1 PUSH3 0x62C JUMPI PUSH1 0x7F DUP3 AND SWAP2 POP JUMPDEST PUSH1 0x20 DUP3 LT DUP2 EQ ISZERO PUSH3 0x64E JUMPI PUSH4 0x4E487B71 PUSH1 0xE0 SHL PUSH1 0x0 MSTORE PUSH1 0x22 PUSH1 0x4 MSTORE PUSH1 0x24 PUSH1 0x0 REVERT JUMPDEST POP SWAP2 SWAP1 POP JUMP JUMPDEST PUSH4 0x4E487B71 PUSH1 0xE0 SHL PUSH1 0x0 MSTORE PUSH1 0x11 PUSH1 0x4 MSTORE PUSH1 0x24 PUSH1 0x0 REVERT JUMPDEST PUSH2 0x276A DUP1 PUSH3 0x67A PUSH1 0x0 CODECOPY PUSH1 0x0 RETURN INVALID PUSH1 0x80 PUSH1 0x40 MSTORE PUSH1 0x4 CALLDATASIZE LT PUSH2 0x1E7 JUMPI PUSH1 0x0 CALLDATALOAD PUSH1 0xE0 SHR DUP1 PUSH4 0x70A08231 GT PUSH2 0x102 JUMPI DUP1 PUSH4 0xC49B9A80 GT PUSH2 0x95 JUMPI DUP1 PUSH4 0xEC28438A GT PUSH2 0x64 JUMPI DUP1 PUSH4 0xEC28438A EQ PUSH2 0x5C9 JUMPI DUP1 PUSH4 0xEDF9B336 EQ PUSH2 0x5E9 JUMPI DUP1 PUSH4 0xF2FDE38B EQ PUSH2 0x609 JUMPI DUP1 PUSH4 0xFCE0F928 EQ PUSH2 0x629 JUMPI PUSH1 0x0 DUP1 REVERT JUMPDEST DUP1 PUSH4 0xC49B9A80 EQ PUSH2 0x523 JUMPI DUP1 PUSH4 0xC9C9AFC5 EQ PUSH2 0x543 JUMPI DUP1 PUSH4 0xDD62ED3E EQ PUSH2 0x563 JUMPI DUP1 PUSH4 0xEA2F0B37 EQ PUSH2 0x5A9 JUMPI PUSH1 0x0 DUP1 REVERT JUMPDEST DUP1 PUSH4 0x95D89B41 GT PUSH2 0xD1 JUMPI DUP1 PUSH4 0x95D89B41 EQ PUSH2 0x4AE JUMPI DUP1 PUSH4 0xA457C2D7 EQ PUSH2 0x4C3 JUMPI DUP1 PUSH4 0xA9059CBB EQ PUSH2 0x4E3 JUMPI DUP1 PUSH4 0xAFA4F3B2 EQ PUSH2 0x503 JUMPI PUSH1 0x0 DUP1 REVERT JUMPDEST DUP1 PUSH4 0x70A08231 EQ PUSH2 0x429 JUMPI DUP1 PUSH4 0x715018A6 EQ PUSH2 0x449 JUMPI DUP1 PUSH4 0x893D20E8 EQ PUSH2 0x45E JUMPI DUP1 PUSH4 0x8DA5CB5B EQ PUSH2 0x490 JUMPI PUSH1 0x0 DUP1 REVERT JUMPDEST DUP1 PUSH4 0x42966C68 GT PUSH2 0x17A JUMPI DUP1 PUSH4 0x679ADC88 GT PUSH2 0x149 JUMPI DUP1 PUSH4 0x679ADC88 EQ PUSH2 0x3A9 JUMPI DUP1 PUSH4 0x6A9C5CA2 EQ PUSH2 0x3C9 JUMPI DUP1 PUSH4 0x6E16DE11 EQ PUSH2 0x3E9 JUMPI DUP1 PUSH4 0x6FCBA377 EQ PUSH2 0x409 JUMPI PUSH1 0x0 DUP1 REVERT JUMPDEST DUP1 PUSH4 0x42966C68 EQ PUSH2 0x310 JUMPI DUP1 PUSH4 0x437823EC EQ PUSH2 0x330 JUMPI DUP1 PUSH4 0x5342ACB4 EQ PUSH2 0x350 JUMPI DUP1 PUSH4 0x54ECE0E3 EQ PUSH2 0x389 JUMPI PUSH1 0x0 DUP1 REVERT JUMPDEST DUP1 PUSH4 0x23B872DD GT PUSH2 0x1B6 JUMPI DUP1 PUSH4 0x23B872DD EQ PUSH2 0x28F JUMPI DUP1 PUSH4 0x313CE567 EQ PUSH2 0x2AF JUMPI DUP1 PUSH4 0x33DF542A EQ PUSH2 0x2D1 JUMPI DUP1 PUSH4 0x39509351 EQ PUSH2 0x2F0 JUMPI PUSH1 0x0 DUP1 REVERT JUMPDEST DUP1 PUSH4 0x6FDDE03 EQ PUSH2 0x1F3 JUMPI DUP1 PUSH4 0x888D692 EQ PUSH2 0x21E JUMPI DUP1 PUSH4 0x95EA7B3 EQ PUSH2 0x240 JUMPI DUP1 PUSH4 0x18160DDD EQ PUSH2 0x270 JUMPI PUSH1 0x0 DUP1 REVERT JUMPDEST CALLDATASIZE PUSH2 0x1EE JUMPI STOP JUMPDEST PUSH1 0x0 DUP1 REVERT JUMPDEST CALLVALUE DUP1 ISZERO PUSH2 0x1FF JUMPI PUSH1 0x0 DUP1 REVERT JUMPDEST POP PUSH2 0x208 PUSH2 0x649 JUMP JUMPDEST PUSH1 0x40 MLOAD PUSH2 0x215 SWAP2 SWAP1 PUSH2 0x24C9 JUMP JUMPDEST PUSH1 0x40 MLOAD DUP1 SWAP2 SUB SWAP1 RETURN JUMPDEST CALLVALUE DUP1 ISZERO PUSH2 0x22A JUMPI PUSH1 0x0 DUP1 REVERT JUMPDEST POP PUSH2 0x23E PUSH2 0x239 CALLDATASIZE PUSH1 0x4 PUSH2 0x242E JUMP JUMPDEST PUSH2 0x6DB JUMP JUMPDEST STOP JUMPDEST CALLVALUE DUP1 ISZERO PUSH2 0x24C JUMPI PUSH1 0x0 DUP1 REVERT JUMPDEST POP PUSH2 0x260 PUSH2 0x25B CALLDATASIZE PUSH1 0x4 PUSH2 0x2402 JUMP JUMPDEST PUSH2 0x72C JUMP JUMPDEST PUSH1 0x40 MLOAD SWAP1 ISZERO ISZERO DUP2 MSTORE PUSH1 0x20 ADD PUSH2 0x215 JUMP JUMPDEST CALLVALUE DUP1 ISZERO PUSH2 0x27C JUMPI PUSH1 0x0 DUP1 REVERT JUMPDEST POP PUSH1 0x7 SLOAD JUMPDEST PUSH1 0x40 MLOAD SWAP1 DUP2 MSTORE PUSH1 0x20 ADD PUSH2 0x215 JUMP JUMPDEST CALLVALUE DUP1 ISZERO PUSH2 0x29B JUMPI PUSH1 0x0 DUP1 REVERT JUMPDEST POP PUSH2 0x260 PUSH2 0x2AA CALLDATASIZE PUSH1 0x4 PUSH2 0x23C1 JUMP JUMPDEST PUSH2 0x742 JUMP JUMPDEST CALLVALUE DUP1 ISZERO PUSH2 0x2BB JUMPI PUSH1 0x0 DUP1 REVERT JUMPDEST POP PUSH1 0xB SLOAD PUSH1 0x40 MLOAD PUSH1 0xFF SWAP1 SWAP2 AND DUP2 MSTORE PUSH1 0x20 ADD PUSH2 0x215 JUMP JUMPDEST CALLVALUE DUP1 ISZERO PUSH2 0x2DD JUMPI PUSH1 0x0 DUP1 REVERT JUMPDEST POP PUSH1 0x15 SLOAD PUSH1 0x1 PUSH1 0xB8 SHL SWAP1 DIV PUSH1 0xFF AND PUSH2 0x260 JUMP JUMPDEST CALLVALUE DUP1 ISZERO PUSH2 0x2FC JUMPI PUSH1 0x0 DUP1 REVERT JUMPDEST POP PUSH2 0x260 PUSH2 0x30B CALLDATASIZE PUSH1 0x4 PUSH2 0x2402 JUMP JUMPDEST PUSH2 0x7AB JUMP JUMPDEST CALLVALUE DUP1 ISZERO PUSH2 0x31C JUMPI PUSH1 0x0 DUP1 REVERT JUMPDEST POP PUSH2 0x23E PUSH2 0x32B CALLDATASIZE PUSH1 0x4 PUSH2 0x2450 JUMP JUMPDEST PUSH2 0x7E1 JUMP JUMPDEST CALLVALUE DUP1 ISZERO PUSH2 0x33C JUMPI PUSH1 0x0 DUP1 REVERT JUMPDEST POP PUSH2 0x23E PUSH2 0x34B CALLDATASIZE PUSH1 0x4 PUSH2 0x234E JUMP JUMPDEST PUSH2 0x7EE JUMP JUMPDEST CALLVALUE DUP1 ISZERO PUSH2 0x35C JUMPI PUSH1 0x0 DUP1 REVERT JUMPDEST POP PUSH2 0x260 PUSH2 0x36B CALLDATASIZE PUSH1 0x4 PUSH2 0x234E JUMP JUMPDEST PUSH1 0x1 PUSH1 0x1 PUSH1 0xA0 SHL SUB AND PUSH1 0x0 SWAP1 DUP2 MSTORE PUSH1 0x3 PUSH1 0x20 MSTORE PUSH1 0x40 SWAP1 KECCAK256 SLOAD PUSH1 0xFF AND SWAP1 JUMP JUMPDEST CALLVALUE DUP1 ISZERO PUSH2 0x395 JUMPI PUSH1 0x0 DUP1 REVERT JUMPDEST POP PUSH2 0x23E PUSH2 0x3A4 CALLDATASIZE PUSH1 0x4 PUSH2 0x242E JUMP JUMPDEST PUSH2 0x873 JUMP JUMPDEST CALLVALUE DUP1 ISZERO PUSH2 0x3B5 JUMPI PUSH1 0x0 DUP1 REVERT JUMPDEST POP PUSH2 0x23E PUSH2 0x3C4 CALLDATASIZE PUSH1 0x4 PUSH2 0x234E JUMP JUMPDEST PUSH2 0x909 JUMP JUMPDEST CALLVALUE DUP1 ISZERO PUSH2 0x3D5 JUMPI PUSH1 0x0 DUP1 REVERT JUMPDEST POP PUSH2 0x23E PUSH2 0x3E4 CALLDATASIZE PUSH1 0x4 PUSH2 0x242E JUMP JUMPDEST PUSH2 0x9CB JUMP JUMPDEST CALLVALUE DUP1 ISZERO PUSH2 0x3F5 JUMPI PUSH1 0x0 DUP1 REVERT JUMPDEST POP PUSH2 0x23E PUSH2 0x404 CALLDATASIZE PUSH1 0x4 PUSH2 0x2450 JUMP JUMPDEST PUSH2 0xA73 JUMP JUMPDEST CALLVALUE DUP1 ISZERO PUSH2 0x415 JUMPI PUSH1 0x0 DUP1 REVERT JUMPDEST POP PUSH2 0x23E PUSH2 0x424 CALLDATASIZE PUSH1 0x4 PUSH2 0x2497 JUMP JUMPDEST PUSH2 0xAE1 JUMP JUMPDEST CALLVALUE DUP1 ISZERO PUSH2 0x435 JUMPI PUSH1 0x0 DUP1 REVERT JUMPDEST POP PUSH2 0x281 PUSH2 0x444 CALLDATASIZE PUSH1 0x4 PUSH2 0x234E JUMP JUMPDEST PUSH2 0xBA3 JUMP JUMPDEST CALLVALUE DUP1 ISZERO PUSH2 0x455 JUMPI PUSH1 0x0 DUP1 REVERT JUMPDEST POP PUSH2 0x23E PUSH2 0xBBE JUMP JUMPDEST CALLVALUE DUP1 ISZERO PUSH2 0x46A JUMPI PUSH1 0x0 DUP1 REVERT JUMPDEST POP PUSH1 0x0 SLOAD PUSH1 0x1 PUSH1 0x1 PUSH1 0xA0 SHL SUB AND JUMPDEST PUSH1 0x40 MLOAD PUSH1 0x1 PUSH1 0x1 PUSH1 0xA0 SHL SUB SWAP1 SWAP2 AND DUP2 MSTORE PUSH1 0x20 ADD PUSH2 0x215 JUMP JUMPDEST CALLVALUE DUP1 ISZERO PUSH2 0x49C JUMPI PUSH1 0x0 DUP1 REVERT JUMPDEST POP PUSH1 0x0 SLOAD PUSH1 0x1 PUSH1 0x1 PUSH1 0xA0 SHL SUB AND PUSH2 0x478 JUMP JUMPDEST CALLVALUE DUP1 ISZERO PUSH2 0x4BA JUMPI PUSH1 0x0 DUP1 REVERT JUMPDEST POP PUSH2 0x208 PUSH2 0xBF4 JUMP JUMPDEST CALLVALUE DUP1 ISZERO PUSH2 0x4CF JUMPI PUSH1 0x0 DUP1 REVERT JUMPDEST POP PUSH2 0x260 PUSH2 0x4DE CALLDATASIZE PUSH1 0x4 PUSH2 0x2402 JUMP JUMPDEST PUSH2 0xC03 JUMP JUMPDEST CALLVALUE DUP1 ISZERO PUSH2 0x4EF JUMPI PUSH1 0x0 DUP1 REVERT JUMPDEST POP PUSH2 0x260 PUSH2 0x4FE CALLDATASIZE PUSH1 0x4 PUSH2 0x2402 JUMP JUMPDEST PUSH2 0xC52 JUMP JUMPDEST CALLVALUE DUP1 ISZERO PUSH2 0x50F JUMPI PUSH1 0x0 DUP1 REVERT JUMPDEST POP PUSH2 0x23E PUSH2 0x51E CALLDATASIZE PUSH1 0x4 PUSH2 0x2450 JUMP JUMPDEST PUSH2 0xC5F JUMP JUMPDEST CALLVALUE DUP1 ISZERO PUSH2 0x52F JUMPI PUSH1 0x0 DUP1 REVERT JUMPDEST POP PUSH2 0x23E PUSH2 0x53E CALLDATASIZE PUSH1 0x4 PUSH2 0x242E JUMP JUMPDEST PUSH2 0xCCD JUMP JUMPDEST CALLVALUE DUP1 ISZERO PUSH2 0x54F JUMPI PUSH1 0x0 DUP1 REVERT JUMPDEST POP PUSH2 0x23E PUSH2 0x55E CALLDATASIZE PUSH1 0x4 PUSH2 0x234E JUMP JUMPDEST PUSH2 0xD44 JUMP JUMPDEST CALLVALUE DUP1 ISZERO PUSH2 0x56F JUMPI PUSH1 0x0 DUP1 REVERT JUMPDEST POP PUSH2 0x281 PUSH2 0x57E CALLDATASIZE PUSH1 0x4 PUSH2 0x2388 JUMP JUMPDEST PUSH1 0x1 PUSH1 0x1 PUSH1 0xA0 SHL SUB SWAP2 DUP3 AND PUSH1 0x0 SWAP1 DUP2 MSTORE PUSH1 0x2 PUSH1 0x20 SWAP1 DUP2 MSTORE PUSH1 0x40 DUP1 DUP4 KECCAK256 SWAP4 SWAP1 SWAP5 AND DUP3 MSTORE SWAP2 SWAP1 SWAP2 MSTORE KECCAK256 SLOAD SWAP1 JUMP JUMPDEST CALLVALUE DUP1 ISZERO PUSH2 0x5B5 JUMPI PUSH1 0x0 DUP1 REVERT JUMPDEST POP PUSH2 0x23E PUSH2 0x5C4 CALLDATASIZE PUSH1 0x4 PUSH2 0x234E JUMP JUMPDEST PUSH2 0xDEE JUMP JUMPDEST CALLVALUE DUP1 ISZERO PUSH2 0x5D5 JUMPI PUSH1 0x0 DUP1 REVERT JUMPDEST POP PUSH2 0x23E PUSH2 0x5E4 CALLDATASIZE PUSH1 0x4 PUSH2 0x2450 JUMP JUMPDEST PUSH2 0xE69 JUMP JUMPDEST CALLVALUE DUP1 ISZERO PUSH2 0x5F5 JUMPI PUSH1 0x0 DUP1 REVERT JUMPDEST POP PUSH2 0x23E PUSH2 0x604 CALLDATASIZE PUSH1 0x4 PUSH2 0x2450 JUMP JUMPDEST PUSH2 0xEEA JUMP JUMPDEST CALLVALUE DUP1 ISZERO PUSH2 0x615 JUMPI PUSH1 0x0 DUP1 REVERT JUMPDEST POP PUSH2 0x23E PUSH2 0x624 CALLDATASIZE PUSH1 0x4 PUSH2 0x234E JUMP JUMPDEST PUSH2 0xF6B JUMP JUMPDEST CALLVALUE DUP1 ISZERO PUSH2 0x635 JUMPI PUSH1 0x0 DUP1 REVERT JUMPDEST POP PUSH2 0x23E PUSH2 0x644 CALLDATASIZE PUSH1 0x4 PUSH2 0x234E JUMP JUMPDEST PUSH2 0x1003 JUMP JUMPDEST PUSH1 0x60 PUSH1 0x9 DUP1 SLOAD PUSH2 0x658 SWAP1 PUSH2 0x266B JUMP JUMPDEST DUP1 PUSH1 0x1F ADD PUSH1 0x20 DUP1 SWAP2 DIV MUL PUSH1 0x20 ADD PUSH1 0x40 MLOAD SWAP1 DUP2 ADD PUSH1 0x40 MSTORE DUP1 SWAP3 SWAP2 SWAP1 DUP2 DUP2 MSTORE PUSH1 0x20 ADD DUP3 DUP1 SLOAD PUSH2 0x684 SWAP1 PUSH2 0x266B JUMP JUMPDEST DUP1 ISZERO PUSH2 0x6D1 JUMPI DUP1 PUSH1 0x1F LT PUSH2 0x6A6 JUMPI PUSH2 0x100 DUP1 DUP4 SLOAD DIV MUL DUP4 MSTORE SWAP2 PUSH1 0x20 ADD SWAP2 PUSH2 0x6D1 JUMP JUMPDEST DUP3 ADD SWAP2 SWAP1 PUSH1 0x0 MSTORE PUSH1 0x20 PUSH1 0x0 KECCAK256 SWAP1 JUMPDEST DUP2 SLOAD DUP2 MSTORE SWAP1 PUSH1 0x1 ADD SWAP1 PUSH1 0x20 ADD DUP1 DUP4 GT PUSH2 0x6B4 JUMPI DUP3 SWAP1 SUB PUSH1 0x1F AND DUP3 ADD SWAP2 JUMPDEST POP POP POP POP POP SWAP1 POP SWAP1 JUMP JUMPDEST PUSH1 0x0 SLOAD PUSH1 0x1 PUSH1 0x1 PUSH1 0xA0 SHL SUB AND CALLER EQ PUSH2 0x70E JUMPI PUSH1 0x40 MLOAD PUSH3 0x461BCD PUSH1 0xE5 SHL DUP2 MSTORE PUSH1 0x4 ADD PUSH2 0x705 SWAP1 PUSH2 0x251E JUMP JUMPDEST PUSH1 0x40 MLOAD DUP1 SWAP2 SUB SWAP1 REVERT JUMPDEST PUSH1 0x15 DUP1 SLOAD SWAP2 ISZERO ISZERO PUSH1 0x1 PUSH1 0xB0 SHL MUL PUSH1 0xFF PUSH1 0xB0 SHL NOT SWAP1 SWAP3 AND SWAP2 SWAP1 SWAP2 OR SWAP1 SSTORE JUMP JUMPDEST PUSH1 0x0 PUSH2 0x739 CALLER DUP5 DUP5 PUSH2 0x10AD JUMP JUMPDEST POP PUSH1 0x1 SWAP3 SWAP2 POP POP JUMP JUMPDEST PUSH1 0x0 PUSH2 0x74F DUP5 DUP5 DUP5 PUSH2 0x11D2 JUMP JUMPDEST PUSH2 0x7A1 DUP5 CALLER PUSH2 0x79C DUP6 PUSH1 0x40 MLOAD DUP1 PUSH1 0x60 ADD PUSH1 0x40 MSTORE DUP1 PUSH1 0x28 DUP2 MSTORE PUSH1 0x20 ADD PUSH2 0x26E8 PUSH1 0x28 SWAP2 CODECOPY PUSH1 0x1 PUSH1 0x1 PUSH1 0xA0 SHL SUB DUP11 AND PUSH1 0x0 SWAP1 DUP2 MSTORE PUSH1 0x2 PUSH1 0x20 SWAP1 DUP2 MSTORE PUSH1 0x40 DUP1 DUP4 KECCAK256 CALLER DUP5 MSTORE SWAP1 SWAP2 MSTORE SWAP1 KECCAK256 SLOAD SWAP2 SWAP1 PUSH2 0x19AE JUMP JUMPDEST PUSH2 0x10AD JUMP JUMPDEST POP PUSH1 0x1 SWAP4 SWAP3 POP POP POP JUMP JUMPDEST CALLER PUSH1 0x0 DUP2 DUP2 MSTORE PUSH1 0x2 PUSH1 0x20 SWAP1 DUP2 MSTORE PUSH1 0x40 DUP1 DUP4 KECCAK256 PUSH1 0x1 PUSH1 0x1 PUSH1 0xA0 SHL SUB DUP8 AND DUP5 MSTORE SWAP1 SWAP2 MSTORE DUP2 KECCAK256 SLOAD SWAP1 SWAP2 PUSH2 0x739 SWAP2 DUP6 SWAP1 PUSH2 0x79C SWAP1 DUP7 PUSH2 0x19DA JUMP JUMPDEST PUSH2 0x7EB CALLER DUP3 PUSH2 0x19ED JUMP JUMPDEST POP JUMP JUMPDEST PUSH1 0x0 SLOAD PUSH1 0x1 PUSH1 0x1 PUSH1 0xA0 SHL SUB AND CALLER EQ PUSH2 0x818 JUMPI PUSH1 0x40 MLOAD PUSH3 0x461BCD PUSH1 0xE5 SHL DUP2 MSTORE PUSH1 0x4 ADD PUSH2 0x705 SWAP1 PUSH2 0x251E JUMP JUMPDEST PUSH1 0x1 PUSH1 0x1 PUSH1 0xA0 SHL SUB DUP2 AND PUSH1 0x0 DUP2 DUP2 MSTORE PUSH1 0x3 PUSH1 0x20 SWAP1 DUP2 MSTORE PUSH1 0x40 SWAP2 DUP3 SWAP1 KECCAK256 DUP1 SLOAD PUSH1 0xFF NOT AND PUSH1 0x1 OR SWAP1 SSTORE SWAP1 MLOAD SWAP2 DUP3 MSTORE PUSH32 0xF1D6512EC7550BF605A5A38910E48FB6A57938ED74A5AFA01753FA023001005C SWAP2 ADD JUMPDEST PUSH1 0x40 MLOAD DUP1 SWAP2 SUB SWAP1 LOG1 POP JUMP JUMPDEST PUSH1 0x0 SLOAD PUSH1 0x1 PUSH1 0x1 PUSH1 0xA0 SHL SUB AND CALLER EQ PUSH2 0x89D JUMPI PUSH1 0x40 MLOAD PUSH3 0x461BCD PUSH1 0xE5 SHL DUP2 MSTORE PUSH1 0x4 ADD PUSH2 0x705 SWAP1 PUSH2 0x251E JUMP JUMPDEST PUSH1 0x1C SLOAD PUSH1 0xFF AND ISZERO ISZERO DUP2 ISZERO ISZERO EQ ISZERO PUSH2 0x8F6 JUMPI PUSH1 0x40 MLOAD PUSH3 0x461BCD PUSH1 0xE5 SHL DUP2 MSTORE PUSH1 0x20 PUSH1 0x4 DUP3 ADD MSTORE PUSH1 0x1B PUSH1 0x24 DUP3 ADD MSTORE PUSH32 0x63616E27742073657420746F207465682073616D652076616C75650000000000 PUSH1 0x44 DUP3 ADD MSTORE PUSH1 0x64 ADD PUSH2 0x705 JUMP JUMPDEST PUSH1 0x1C DUP1 SLOAD PUSH1 0xFF NOT AND SWAP2 ISZERO ISZERO SWAP2 SWAP1 SWAP2 OR SWAP1 SSTORE JUMP JUMPDEST PUSH1 0x0 SLOAD PUSH1 0x1 PUSH1 0x1 PUSH1 0xA0 SHL SUB AND CALLER EQ PUSH2 0x933 JUMPI PUSH1 0x40 MLOAD PUSH3 0x461BCD PUSH1 0xE5 SHL DUP2 MSTORE PUSH1 0x4 ADD PUSH2 0x705 SWAP1 PUSH2 0x251E JUMP JUMPDEST PUSH1 0x5 SLOAD PUSH1 0x1 PUSH1 0x1 PUSH1 0xA0 SHL SUB DUP3 DUP2 AND SWAP2 AND EQ ISZERO PUSH2 0x991 JUMPI PUSH1 0x40 MLOAD PUSH3 0x461BCD PUSH1 0xE5 SHL DUP2 MSTORE PUSH1 0x20 PUSH1 0x4 DUP3 ADD MSTORE PUSH1 0x1D PUSH1 0x24 DUP3 ADD MSTORE PUSH32 0x63616E27742073657420746F207468652073616D652061646472657373000000 PUSH1 0x44 DUP3 ADD MSTORE PUSH1 0x64 ADD PUSH2 0x705 JUMP JUMPDEST PUSH1 0x5 DUP1 SLOAD PUSH1 0x1 PUSH1 0x1 PUSH1 0xA0 SHL SUB SWAP1 SWAP3 AND PUSH1 0x1 PUSH1 0x1 PUSH1 0xA0 SHL SUB NOT SWAP1 SWAP3 AND DUP3 OR SWAP1 SSTORE PUSH1 0x0 SWAP1 DUP2 MSTORE PUSH1 0x3 PUSH1 0x20 MSTORE PUSH1 0x40 SWAP1 KECCAK256 DUP1 SLOAD PUSH1 0xFF NOT AND PUSH1 0x1 OR SWAP1 SSTORE JUMP JUMPDEST PUSH1 0x0 SLOAD PUSH1 0x1 PUSH1 0x1 PUSH1 0xA0 SHL SUB AND CALLER EQ PUSH2 0x9F5 JUMPI PUSH1 0x40 MLOAD PUSH3 0x461BCD PUSH1 0xE5 SHL DUP2 MSTORE PUSH1 0x4 ADD PUSH2 0x705 SWAP1 PUSH2 0x251E JUMP JUMPDEST PUSH1 0x15 SLOAD PUSH1 0xFF PUSH1 0x1 PUSH1 0xB8 SHL SWAP1 SWAP2 DIV AND ISZERO ISZERO DUP2 ISZERO ISZERO EQ ISZERO PUSH2 0xA26 JUMPI PUSH1 0x40 MLOAD PUSH3 0x461BCD PUSH1 0xE5 SHL DUP2 MSTORE PUSH1 0x4 ADD PUSH2 0x705 SWAP1 PUSH2 0x2553 JUMP JUMPDEST PUSH1 0x15 DUP1 SLOAD DUP3 ISZERO ISZERO PUSH1 0x1 PUSH1 0xB8 SHL MUL PUSH1 0xFF PUSH1 0xB8 SHL NOT SWAP1 SWAP2 AND OR SWAP1 SSTORE PUSH1 0x40 MLOAD PUSH32 0xC978AFC13AE5D7445F4B073BE72C8F20E68BE6E6DB47D7F7905DACF6D931D294 SWAP1 PUSH2 0x868 SWAP1 DUP4 ISZERO ISZERO DUP2 MSTORE PUSH1 0x20 ADD SWAP1 JUMP JUMPDEST PUSH1 0x0 SLOAD PUSH1 0x1 PUSH1 0x1 PUSH1 0xA0 SHL SUB AND CALLER EQ PUSH2 0xA9D JUMPI PUSH1 0x40 MLOAD PUSH3 0x461BCD PUSH1 0xE5 SHL DUP2 MSTORE PUSH1 0x4 ADD PUSH2 0x705 SWAP1 PUSH2 0x251E JUMP JUMPDEST DUP1 PUSH1 0x1A SLOAD EQ ISZERO PUSH2 0xAAC JUMPI PUSH1 0x0 DUP1 REVERT JUMPDEST PUSH1 0x1A DUP2 SWAP1 SSTORE PUSH1 0x40 MLOAD DUP2 DUP2 MSTORE PUSH32 0xA1549E44F9E72C53C056EC73782F5BB2B8C2950B3F11929B746D641F91048D7F SWAP1 PUSH1 0x20 ADD PUSH2 0x868 JUMP JUMPDEST PUSH1 0x0 SLOAD PUSH1 0x1 PUSH1 0x1 PUSH1 0xA0 SHL SUB AND CALLER EQ PUSH2 0xB0B JUMPI PUSH1 0x40 MLOAD PUSH3 0x461BCD PUSH1 0xE5 SHL DUP2 MSTORE PUSH1 0x4 ADD PUSH2 0x705 SWAP1 PUSH2 0x251E JUMP JUMPDEST DUP4 PUSH1 0xC SLOAD EQ ISZERO DUP1 PUSH2 0xB1E JUMPI POP DUP3 PUSH1 0xE SLOAD EQ ISZERO JUMPDEST DUP1 PUSH2 0xB2B JUMPI POP DUP2 PUSH1 0x12 SLOAD EQ ISZERO JUMPDEST DUP1 PUSH2 0xB38 JUMPI POP DUP1 PUSH1 0x10 SLOAD EQ ISZERO JUMPDEST PUSH2 0xB41 JUMPI PUSH1 0x0 DUP1 REVERT JUMPDEST PUSH1 0xC DUP5 SWAP1 SSTORE PUSH1 0xE DUP4 SWAP1 SSTORE PUSH1 0x12 DUP3 SWAP1 SSTORE PUSH1 0x10 DUP2 SWAP1 SSTORE PUSH1 0x40 DUP1 MLOAD DUP6 DUP2 MSTORE PUSH1 0x20 DUP2 ADD DUP6 SWAP1 MSTORE SWAP1 DUP2 ADD DUP4 SWAP1 MSTORE PUSH1 0x60 DUP2 ADD DUP3 SWAP1 MSTORE PUSH32 0x5C3AEE3D65F7EB02CDED951435D06B06EF307BC7F57B98975C4A41DC116E711C SWAP1 PUSH1 0x80 ADD PUSH1 0x40 MLOAD DUP1 SWAP2 SUB SWAP1 LOG1 POP POP POP POP JUMP JUMPDEST PUSH1 0x1 PUSH1 0x1 PUSH1 0xA0 SHL SUB AND PUSH1 0x0 SWAP1 DUP2 MSTORE PUSH1 0x1 PUSH1 0x20 MSTORE PUSH1 0x40 SWAP1 KECCAK256 SLOAD SWAP1 JUMP JUMPDEST PUSH1 0x0 SLOAD PUSH1 0x1 PUSH1 0x1 PUSH1 0xA0 SHL SUB AND CALLER EQ PUSH2 0xBE8 JUMPI PUSH1 0x40 MLOAD PUSH3 0x461BCD PUSH1 0xE5 SHL DUP2 MSTORE PUSH1 0x4 ADD PUSH2 0x705 SWAP1 PUSH2 0x251E JUMP JUMPDEST PUSH2 0xBF2 PUSH1 0x0 PUSH2 0x1B33 JUMP JUMPDEST JUMP JUMPDEST PUSH1 0x60 PUSH1 0xA DUP1 SLOAD PUSH2 0x658 SWAP1 PUSH2 0x266B JUMP JUMPDEST PUSH1 0x0 PUSH2 0x739 CALLER DUP5 PUSH2 0x79C DUP6 PUSH1 0x40 MLOAD DUP1 PUSH1 0x60 ADD PUSH1 0x40 MSTORE DUP1 PUSH1 0x25 DUP2 MSTORE PUSH1 0x20 ADD PUSH2 0x2710 PUSH1 0x25 SWAP2 CODECOPY CALLER PUSH1 0x0 SWAP1 DUP2 MSTORE PUSH1 0x2 PUSH1 0x20 SWAP1 DUP2 MSTORE PUSH1 0x40 DUP1 DUP4 KECCAK256 PUSH1 0x1 PUSH1 0x1 PUSH1 0xA0 SHL SUB DUP14 AND DUP5 MSTORE SWAP1 SWAP2 MSTORE SWAP1 KECCAK256 SLOAD SWAP2 SWAP1 PUSH2 0x19AE JUMP JUMPDEST PUSH1 0x0 PUSH2 0x739 CALLER DUP5 DUP5 PUSH2 0x11D2 JUMP JUMPDEST PUSH1 0x0 SLOAD PUSH1 0x1 PUSH1 0x1 PUSH1 0xA0 SHL SUB AND CALLER EQ PUSH2 0xC89 JUMPI PUSH1 0x40 MLOAD PUSH3 0x461BCD PUSH1 0xE5 SHL DUP2 MSTORE PUSH1 0x4 ADD PUSH2 0x705 SWAP1 PUSH2 0x251E JUMP JUMPDEST DUP1 PUSH1 0x19 SLOAD EQ ISZERO PUSH2 0xC98 JUMPI PUSH1 0x0 DUP1 REVERT JUMPDEST PUSH1 0x19 DUP2 SWAP1 SSTORE PUSH1 0x40 MLOAD DUP2 DUP2 MSTORE PUSH32 0xE82283D0F679A15D3811ECBAA8B6A8AFB1B110E22DAA33B359C37BCAE5A11E48 SWAP1 PUSH1 0x20 ADD PUSH2 0x868 JUMP JUMPDEST PUSH1 0x0 SLOAD PUSH1 0x1 PUSH1 0x1 PUSH1 0xA0 SHL SUB AND CALLER EQ PUSH2 0xCF7 JUMPI PUSH1 0x40 MLOAD PUSH3 0x461BCD PUSH1 0xE5 SHL DUP2 MSTORE PUSH1 0x4 ADD PUSH2 0x705 SWAP1 PUSH2 0x251E JUMP JUMPDEST PUSH1 0x15 DUP1 SLOAD DUP3 ISZERO ISZERO PUSH1 0x1 PUSH1 0xA8 SHL MUL PUSH1 0xFF PUSH1 0xA8 SHL NOT SWAP1 SWAP2 AND OR SWAP1 SSTORE PUSH1 0x40 MLOAD PUSH32 0x53726DFCAF90650AA7EB35524F4D3220F07413C8D6CB404CC8C18BF5591BC159 SWAP1 PUSH2 0x868 SWAP1 DUP4 ISZERO ISZERO DUP2 MSTORE PUSH1 0x20 ADD SWAP1 JUMP JUMPDEST PUSH1 0x0 SLOAD PUSH1 0x1 PUSH1 0x1 PUSH1 0xA0 SHL SUB AND CALLER EQ PUSH2 0xD6E JUMPI PUSH1 0x40 MLOAD PUSH3 0x461BCD PUSH1 0xE5 SHL DUP2 MSTORE PUSH1 0x4 ADD PUSH2 0x705 SWAP1 PUSH2 0x251E JUMP JUMPDEST PUSH1 0x6 SLOAD PUSH1 0x1 PUSH1 0x1 PUSH1 0xA0 SHL SUB DUP3 DUP2 AND SWAP2 AND EQ ISZERO PUSH2 0xDCC JUMPI PUSH1 0x40 MLOAD PUSH3 0x461BCD PUSH1 0xE5 SHL DUP2 MSTORE PUSH1 0x20 PUSH1 0x4 DUP3 ADD MSTORE PUSH1 0x19 PUSH1 0x24 DUP3 ADD MSTORE PUSH32 0x63616E27742073657420746F2073616D65206164647265737300000000000000 PUSH1 0x44 DUP3 ADD MSTORE PUSH1 0x64 ADD PUSH2 0x705 JUMP JUMPDEST PUSH1 0x6 DUP1 SLOAD PUSH1 0x1 PUSH1 0x1 PUSH1 0xA0 SHL SUB NOT AND PUSH1 0x1 PUSH1 0x1 PUSH1 0xA0 SHL SUB SWAP3 SWAP1 SWAP3 AND SWAP2 SWAP1 SWAP2 OR SWAP1 SSTORE JUMP JUMPDEST PUSH1 0x0 SLOAD PUSH1 0x1 PUSH1 0x1 PUSH1 0xA0 SHL SUB AND CALLER EQ PUSH2 0xE18 JUMPI PUSH1 0x40 MLOAD PUSH3 0x461BCD PUSH1 0xE5 SHL DUP2 MSTORE PUSH1 0x4 ADD PUSH2 0x705 SWAP1 PUSH2 0x251E JUMP JUMPDEST PUSH1 0x1 PUSH1 0x1 PUSH1 0xA0 SHL SUB DUP2 AND PUSH1 0x0 DUP2 DUP2 MSTORE PUSH1 0x3 PUSH1 0x20 SWAP1 DUP2 MSTORE PUSH1 0x40 SWAP2 DUP3 SWAP1 KECCAK256 DUP1 SLOAD PUSH1 0xFF NOT AND SWAP1 SSTORE SWAP1 MLOAD SWAP2 DUP3 MSTORE PUSH32 0x976FF2B01CB494434F270C12DA5E45AC90C699B50C2312E2BB2FEAD2466AA4FE SWAP2 ADD PUSH2 0x868 JUMP JUMPDEST PUSH1 0x0 SLOAD PUSH1 0x1 PUSH1 0x1 PUSH1 0xA0 SHL SUB AND CALLER EQ PUSH2 0xE93 JUMPI PUSH1 0x40 MLOAD PUSH3 0x461BCD PUSH1 0xE5 SHL DUP2 MSTORE PUSH1 0x4 ADD PUSH2 0x705 SWAP1 PUSH2 0x251E JUMP JUMPDEST DUP1 PUSH1 0x16 SLOAD EQ ISZERO PUSH2 0xEB5 JUMPI PUSH1 0x40 MLOAD PUSH3 0x461BCD PUSH1 0xE5 SHL DUP2 MSTORE PUSH1 0x4 ADD PUSH2 0x705 SWAP1 PUSH2 0x2553 JUMP JUMPDEST PUSH1 0x16 DUP2 SWAP1 SSTORE PUSH1 0x40 MLOAD DUP2 DUP2 MSTORE PUSH32 0x9F5E246AF7C18550FFBB625AF523D90C3BE8C2F4C33FAEDE31F8005C517200FA SWAP1 PUSH1 0x20 ADD PUSH2 0x868 JUMP JUMPDEST PUSH1 0x0 SLOAD PUSH1 0x1 PUSH1 0x1 PUSH1 0xA0 SHL SUB AND CALLER EQ PUSH2 0xF14 JUMPI PUSH1 0x40 MLOAD PUSH3 0x461BCD PUSH1 0xE5 SHL DUP2 MSTORE PUSH1 0x4 ADD PUSH2 0x705 SWAP1 PUSH2 0x251E JUMP JUMPDEST DUP1 PUSH1 0x17 SLOAD EQ ISZERO PUSH2 0xF36 JUMPI PUSH1 0x40 MLOAD PUSH3 0x461BCD PUSH1 0xE5 SHL DUP2 MSTORE PUSH1 0x4 ADD PUSH2 0x705 SWAP1 PUSH2 0x2553 JUMP JUMPDEST PUSH1 0x17 DUP2 SWAP1 SSTORE PUSH1 0x40 MLOAD DUP2 DUP2 MSTORE PUSH32 0x51E3FEC885CE1A8053160FAF7FB820D2AFEBD30D0018F733B15615315D1745AD SWAP1 PUSH1 0x20 ADD PUSH2 0x868 JUMP JUMPDEST PUSH1 0x0 SLOAD PUSH1 0x1 PUSH1 0x1 PUSH1 0xA0 SHL SUB AND CALLER EQ PUSH2 0xF95 JUMPI PUSH1 0x40 MLOAD PUSH3 0x461BCD PUSH1 0xE5 SHL DUP2 MSTORE PUSH1 0x4 ADD PUSH2 0x705 SWAP1 PUSH2 0x251E JUMP JUMPDEST PUSH1 0x1 PUSH1 0x1 PUSH1 0xA0 SHL SUB DUP2 AND PUSH2 0xFFA JUMPI PUSH1 0x40 MLOAD PUSH3 0x461BCD PUSH1 0xE5 SHL DUP2 MSTORE PUSH1 0x20 PUSH1 0x4 DUP3 ADD MSTORE PUSH1 0x26 PUSH1 0x24 DUP3 ADD MSTORE PUSH32 0x4F776E61626C653A206E6577206F776E657220697320746865207A65726F2061 PUSH1 0x44 DUP3 ADD MSTORE PUSH6 0x646472657373 PUSH1 0xD0 SHL PUSH1 0x64 DUP3 ADD MSTORE PUSH1 0x84 ADD PUSH2 0x705 JUMP JUMPDEST PUSH2 0x7EB DUP2 PUSH2 0x1B33 JUMP JUMPDEST PUSH1 0x0 SLOAD PUSH1 0x1 PUSH1 0x1 PUSH1 0xA0 SHL SUB AND CALLER EQ PUSH2 0x102D JUMPI PUSH1 0x40 MLOAD PUSH3 0x461BCD PUSH1 0xE5 SHL DUP2 MSTORE PUSH1 0x4 ADD PUSH2 0x705 SWAP1 PUSH2 0x251E JUMP JUMPDEST PUSH1 0x4 SLOAD PUSH1 0x1 PUSH1 0x1 PUSH1 0xA0 SHL SUB DUP3 DUP2 AND SWAP2 AND EQ ISZERO PUSH2 0x108B JUMPI PUSH1 0x40 MLOAD PUSH3 0x461BCD PUSH1 0xE5 SHL DUP2 MSTORE PUSH1 0x20 PUSH1 0x4 DUP3 ADD MSTORE PUSH1 0x1D PUSH1 0x24 DUP3 ADD MSTORE PUSH32 0x63616E27742073657420746F207468652073616D652061646472657373000000 PUSH1 0x44 DUP3 ADD MSTORE PUSH1 0x64 ADD PUSH2 0x705 JUMP JUMPDEST PUSH1 0x4 DUP1 SLOAD PUSH1 0x1 PUSH1 0x1 PUSH1 0xA0 SHL SUB NOT AND PUSH1 0x1 PUSH1 0x1 PUSH1 0xA0 SHL SUB SWAP3 SWAP1 SWAP3 AND SWAP2 SWAP1 SWAP2 OR SWAP1 SSTORE JUMP JUMPDEST PUSH1 0x1 PUSH1 0x1 PUSH1 0xA0 SHL SUB DUP4 AND PUSH2 0x110F JUMPI PUSH1 0x40 MLOAD PUSH3 0x461BCD PUSH1 0xE5 SHL DUP2 MSTORE PUSH1 0x20 PUSH1 0x4 DUP3 ADD MSTORE PUSH1 0x24 DUP1 DUP3 ADD MSTORE PUSH32 0x45524332303A20617070726F76652066726F6D20746865207A65726F20616464 PUSH1 0x44 DUP3 ADD MSTORE PUSH4 0x72657373 PUSH1 0xE0 SHL PUSH1 0x64 DUP3 ADD MSTORE PUSH1 0x84 ADD PUSH2 0x705 JUMP JUMPDEST PUSH1 0x1 PUSH1 0x1 PUSH1 0xA0 SHL SUB DUP3 AND PUSH2 0x1170 JUMPI PUSH1 0x40 MLOAD PUSH3 0x461BCD PUSH1 0xE5 SHL DUP2 MSTORE PUSH1 0x20 PUSH1 0x4 DUP3 ADD MSTORE PUSH1 0x22 PUSH1 0x24 DUP3 ADD MSTORE PUSH32 0x45524332303A20617070726F766520746F20746865207A65726F206164647265 PUSH1 0x44 DUP3 ADD MSTORE PUSH2 0x7373 PUSH1 0xF0 SHL PUSH1 0x64 DUP3 ADD MSTORE PUSH1 0x84 ADD PUSH2 0x705 JUMP JUMPDEST PUSH1 0x1 PUSH1 0x1 PUSH1 0xA0 SHL SUB DUP4 DUP2 AND PUSH1 0x0 DUP2 DUP2 MSTORE PUSH1 0x2 PUSH1 0x20 SWAP1 DUP2 MSTORE PUSH1 0x40 DUP1 DUP4 KECCAK256 SWAP5 DUP8 AND DUP1 DUP5 MSTORE SWAP5 DUP3 MSTORE SWAP2 DUP3 SWAP1 KECCAK256 DUP6 SWAP1 SSTORE SWAP1 MLOAD DUP5 DUP2 MSTORE PUSH32 0x8C5BE1E5EBEC7D5BD14F71427D1E84F3DD0314C0F7B2291E5B200AC8C7C3B925 SWAP2 ADD JUMPDEST PUSH1 0x40 MLOAD DUP1 SWAP2 SUB SWAP1 LOG3 POP POP POP JUMP JUMPDEST PUSH1 0x1 PUSH1 0x1 PUSH1 0xA0 SHL SUB DUP4 AND PUSH2 0x1236 JUMPI PUSH1 0x40 MLOAD PUSH3 0x461BCD PUSH1 0xE5 SHL DUP2 MSTORE PUSH1 0x20 PUSH1 0x4 DUP3 ADD MSTORE PUSH1 0x25 PUSH1 0x24 DUP3 ADD MSTORE PUSH32 0x45524332303A207472616E736665722066726F6D20746865207A65726F206164 PUSH1 0x44 DUP3 ADD MSTORE PUSH5 0x6472657373 PUSH1 0xD8 SHL PUSH1 0x64 DUP3 ADD MSTORE PUSH1 0x84 ADD PUSH2 0x705 JUMP JUMPDEST PUSH1 0x1 PUSH1 0x1 PUSH1 0xA0 SHL SUB DUP3 AND PUSH2 0x1298 JUMPI PUSH1 0x40 MLOAD PUSH3 0x461BCD PUSH1 0xE5 SHL DUP2 MSTORE PUSH1 0x20 PUSH1 0x4 DUP3 ADD MSTORE PUSH1 0x23 PUSH1 0x24 DUP3 ADD MSTORE PUSH32 0x45524332303A207472616E7366657220746F20746865207A65726F2061646472 PUSH1 0x44 DUP3 ADD MSTORE PUSH3 0x657373 PUSH1 0xE8 SHL PUSH1 0x64 DUP3 ADD MSTORE PUSH1 0x84 ADD PUSH2 0x705 JUMP JUMPDEST PUSH1 0x0 DUP2 GT PUSH2 0x12FA JUMPI PUSH1 0x40 MLOAD PUSH3 0x461BCD PUSH1 0xE5 SHL DUP2 MSTORE PUSH1 0x20 PUSH1 0x4 DUP3 ADD MSTORE PUSH1 0x29 PUSH1 0x24 DUP3 ADD MSTORE PUSH32 0x5472616E7366657220616D6F756E74206D757374206265206772656174657220 PUSH1 0x44 DUP3 ADD MSTORE PUSH9 0x7468616E207A65726F PUSH1 0xB8 SHL PUSH1 0x64 DUP3 ADD MSTORE PUSH1 0x84 ADD PUSH2 0x705 JUMP JUMPDEST PUSH1 0x15 SLOAD PUSH1 0x1 PUSH1 0x1 PUSH1 0xA0 SHL SUB DUP4 DUP2 AND SWAP2 AND EQ DUP1 ISZERO PUSH2 0x1329 JUMPI POP PUSH1 0x15 SLOAD PUSH2 0x1327 SWAP1 PUSH1 0x1 PUSH1 0x1 PUSH1 0xA0 SHL SUB AND PUSH2 0xBA3 JUMP JUMPDEST ISZERO JUMPDEST ISZERO PUSH2 0x13B2 JUMPI PUSH1 0x15 SLOAD PUSH1 0x1 PUSH1 0xB0 SHL SWAP1 DIV PUSH1 0xFF AND ISZERO ISZERO PUSH1 0x1 EQ PUSH2 0x13B2 JUMPI PUSH1 0x40 MLOAD PUSH3 0x461BCD PUSH1 0xE5 SHL DUP2 MSTORE PUSH1 0x20 PUSH1 0x4 DUP3 ADD MSTORE PUSH1 0x3C PUSH1 0x24 DUP3 ADD MSTORE PUSH32 0x596F7520617265206E6F7420616C6C6F77656420746F20616464206C69717569 PUSH1 0x44 DUP3 ADD MSTORE PUSH32 0x64697479206265666F72652070726573616C6520697320656E64656400000000 PUSH1 0x64 DUP3 ADD MSTORE PUSH1 0x84 ADD PUSH2 0x705 JUMP JUMPDEST PUSH1 0x1D SLOAD ISZERO DUP1 ISZERO PUSH2 0x13CF JUMPI POP PUSH1 0x15 SLOAD PUSH1 0x1 PUSH1 0x1 PUSH1 0xA0 SHL SUB DUP4 DUP2 AND SWAP2 AND EQ JUMPDEST ISZERO PUSH2 0x13F2 JUMPI PUSH1 0x0 PUSH2 0x13DF DUP5 PUSH2 0xBA3 JUMP JUMPDEST GT PUSH2 0x13E9 JUMPI PUSH1 0x0 DUP1 REVERT JUMPDEST PUSH2 0x13F2 NUMBER PUSH1 0x1D SSTORE JUMP JUMPDEST PUSH1 0x1 PUSH1 0x1 PUSH1 0xA0 SHL SUB DUP4 AND PUSH1 0x0 SWAP1 DUP2 MSTORE PUSH1 0x3 PUSH1 0x20 MSTORE PUSH1 0x40 SWAP1 KECCAK256 SLOAD PUSH1 0xFF AND ISZERO DUP1 ISZERO PUSH2 0x1434 JUMPI POP PUSH1 0x1 PUSH1 0x1 PUSH1 0xA0 SHL SUB DUP3 AND PUSH1 0x0 SWAP1 DUP2 MSTORE PUSH1 0x3 PUSH1 0x20 MSTORE PUSH1 0x40 SWAP1 KECCAK256 SLOAD PUSH1 0xFF AND ISZERO JUMPDEST DUP1 ISZERO PUSH2 0x1455 JUMPI POP PUSH1 0x15 SLOAD PUSH1 0x0 SWAP1 PUSH2 0x1453 SWAP1 PUSH1 0x1 PUSH1 0x1 PUSH1 0xA0 SHL SUB AND PUSH2 0xBA3 JUMP JUMPDEST GT JUMPDEST DUP1 ISZERO PUSH2 0x146B JUMPI POP PUSH1 0x15 SLOAD PUSH1 0x1 PUSH1 0xA0 SHL SWAP1 DIV PUSH1 0xFF AND ISZERO JUMPDEST DUP1 ISZERO PUSH2 0x1485 JUMPI POP PUSH1 0x14 SLOAD PUSH1 0x1 PUSH1 0x1 PUSH1 0xA0 SHL SUB DUP5 DUP2 AND SWAP2 AND EQ ISZERO JUMPDEST DUP1 ISZERO PUSH2 0x14B5 JUMPI POP PUSH1 0x15 SLOAD PUSH1 0x1 PUSH1 0x1 PUSH1 0xA0 SHL SUB DUP5 DUP2 AND SWAP2 AND EQ DUP1 PUSH2 0x14B5 JUMPI POP PUSH1 0x15 SLOAD PUSH1 0x1 PUSH1 0x1 PUSH1 0xA0 SHL SUB DUP4 DUP2 AND SWAP2 AND EQ JUMPDEST ISZERO PUSH2 0x151D JUMPI PUSH1 0x16 SLOAD DUP2 GT ISZERO PUSH2 0x151D JUMPI PUSH1 0x40 MLOAD PUSH3 0x461BCD PUSH1 0xE5 SHL DUP2 MSTORE PUSH1 0x20 PUSH1 0x4 DUP3 ADD MSTORE PUSH1 0x28 PUSH1 0x24 DUP3 ADD MSTORE PUSH32 0x5472616E7366657220616D6F756E74206578636565647320746865206D617854 PUSH1 0x44 DUP3 ADD MSTORE PUSH8 0x3C20B6B7BAB73A17 PUSH1 0xC1 SHL PUSH1 0x64 DUP3 ADD MSTORE PUSH1 0x84 ADD PUSH2 0x705 JUMP JUMPDEST PUSH1 0x15 SLOAD PUSH1 0x1 PUSH1 0x1 PUSH1 0xA0 SHL SUB DUP4 DUP2 AND SWAP2 AND EQ DUP1 ISZERO SWAP1 PUSH2 0x1544 JUMPI POP PUSH1 0x15 SLOAD PUSH1 0x1 PUSH1 0xB8 SHL SWAP1 DIV PUSH1 0xFF AND JUMPDEST DUP1 ISZERO PUSH2 0x158C JUMPI POP PUSH1 0x1 PUSH1 0x1 PUSH1 0xA0 SHL SUB DUP4 AND PUSH1 0x0 SWAP1 DUP2 MSTORE PUSH1 0x3 PUSH1 0x20 MSTORE PUSH1 0x40 SWAP1 KECCAK256 SLOAD PUSH1 0xFF AND ISZERO DUP1 PUSH2 0x158C JUMPI POP PUSH1 0x1 PUSH1 0x1 PUSH1 0xA0 SHL SUB DUP3 AND PUSH1 0x0 SWAP1 DUP2 MSTORE PUSH1 0x3 PUSH1 0x20 MSTORE PUSH1 0x40 SWAP1 KECCAK256 SLOAD PUSH1 0xFF AND ISZERO JUMPDEST ISZERO PUSH2 0x1622 JUMPI PUSH1 0x0 PUSH2 0x159C DUP4 PUSH2 0xBA3 JUMP JUMPDEST PUSH1 0x18 SLOAD SWAP1 SWAP2 POP PUSH2 0x15AC DUP4 DUP4 PUSH2 0x25FB JUMP JUMPDEST GT ISZERO PUSH2 0x1620 JUMPI PUSH1 0x40 MLOAD PUSH3 0x461BCD PUSH1 0xE5 SHL DUP2 MSTORE PUSH1 0x20 PUSH1 0x4 DUP3 ADD MSTORE PUSH1 0x3D PUSH1 0x24 DUP3 ADD MSTORE PUSH32 0x546F74616C20486F6C64696E672069732063757272656E746C79206C696D6974 PUSH1 0x44 DUP3 ADD MSTORE PUSH32 0x65642C20796F752063616E206E6F74206275792074686174206D756368000000 PUSH1 0x64 DUP3 ADD MSTORE PUSH1 0x84 ADD PUSH2 0x705 JUMP JUMPDEST POP JUMPDEST PUSH1 0x0 PUSH2 0x162D ADDRESS PUSH2 0xBA3 JUMP JUMPDEST SWAP1 POP PUSH1 0x16 SLOAD DUP2 LT PUSH2 0x163D JUMPI POP PUSH1 0x16 SLOAD JUMPDEST PUSH1 0x0 PUSH1 0x19 SLOAD DUP3 LT ISZERO SWAP1 POP PUSH1 0x0 PUSH1 0xC SLOAD PUSH1 0x10 SLOAD PUSH1 0xE SLOAD PUSH1 0x12 SLOAD PUSH2 0x165F SWAP2 SWAP1 PUSH2 0x25FB JUMP JUMPDEST PUSH2 0x1669 SWAP2 SWAP1 PUSH2 0x25FB JUMP JUMPDEST PUSH2 0x1673 SWAP2 SWAP1 PUSH2 0x25FB JUMP JUMPDEST SWAP1 POP DUP2 DUP1 ISZERO PUSH2 0x168C JUMPI POP PUSH1 0x15 SLOAD PUSH1 0x1 PUSH1 0xA0 SHL SWAP1 DIV PUSH1 0xFF AND ISZERO JUMPDEST DUP1 ISZERO PUSH2 0x16A6 JUMPI POP PUSH1 0x15 SLOAD PUSH1 0x1 PUSH1 0x1 PUSH1 0xA0 SHL SUB DUP8 DUP2 AND SWAP2 AND EQ ISZERO JUMPDEST DUP1 ISZERO PUSH2 0x16BB JUMPI POP PUSH1 0x15 SLOAD PUSH1 0x1 PUSH1 0xA8 SHL SWAP1 DIV PUSH1 0xFF AND JUMPDEST DUP1 ISZERO PUSH2 0x16D6 JUMPI POP PUSH1 0x1A SLOAD PUSH1 0x1B SLOAD PUSH2 0x16D2 SWAP2 SWAP1 PUSH2 0x25FB JUMP JUMPDEST TIMESTAMP LT ISZERO JUMPDEST ISZERO PUSH2 0x1741 JUMPI PUSH1 0x0 PUSH2 0x170E DUP3 PUSH2 0x1708 PUSH1 0x10 SLOAD PUSH1 0xC SLOAD PUSH1 0xE SLOAD PUSH2 0x16F7 SWAP2 SWAP1 PUSH2 0x25FB JUMP JUMPDEST PUSH2 0x1701 SWAP2 SWAP1 PUSH2 0x25FB JUMP JUMPDEST DUP8 SWAP1 PUSH2 0x1B83 JUMP JUMPDEST SWAP1 PUSH2 0x1B8F JUMP JUMPDEST SWAP1 POP PUSH2 0x1719 DUP2 PUSH2 0x1B9B JUMP JUMPDEST PUSH2 0x173B ADDRESS PUSH2 0x1736 DUP5 PUSH2 0x1708 PUSH1 0x12 SLOAD DUP10 PUSH2 0x1B83 SWAP1 SWAP2 SWAP1 PUSH4 0xFFFFFFFF AND JUMP JUMPDEST PUSH2 0x19ED JUMP JUMPDEST POP TIMESTAMP PUSH1 0x1B SSTORE JUMPDEST PUSH1 0x15 SLOAD PUSH1 0x0 SWAP1 DUP2 SWAP1 PUSH2 0x175B SWAP1 PUSH1 0x1 PUSH1 0x1 PUSH1 0xA0 SHL SUB AND PUSH2 0xBA3 JUMP JUMPDEST GT DUP1 ISZERO PUSH2 0x178C JUMPI POP PUSH1 0x15 SLOAD PUSH1 0x1 PUSH1 0x1 PUSH1 0xA0 SHL SUB DUP9 DUP2 AND SWAP2 AND EQ DUP1 PUSH2 0x178C JUMPI POP PUSH1 0x15 SLOAD PUSH1 0x1 PUSH1 0x1 PUSH1 0xA0 SHL SUB DUP8 DUP2 AND SWAP2 AND EQ JUMPDEST ISZERO PUSH2 0x1795 JUMPI POP PUSH1 0x1 JUMPDEST PUSH1 0x1 PUSH1 0x1 PUSH1 0xA0 SHL SUB DUP8 AND PUSH1 0x0 SWAP1 DUP2 MSTORE PUSH1 0x3 PUSH1 0x20 MSTORE PUSH1 0x40 SWAP1 KECCAK256 SLOAD PUSH1 0xFF AND DUP1 PUSH2 0x17D4 JUMPI POP PUSH1 0x1 PUSH1 0x1 PUSH1 0xA0 SHL SUB DUP7 AND PUSH1 0x0 SWAP1 DUP2 MSTORE PUSH1 0x3 PUSH1 0x20 MSTORE PUSH1 0x40 SWAP1 KECCAK256 SLOAD PUSH1 0xFF AND JUMPDEST ISZERO PUSH2 0x17DD JUMPI POP PUSH1 0x0 JUMPDEST NUMBER PUSH1 0x1D SLOAD PUSH1 0x3 PUSH2 0x17ED SWAP2 SWAP1 PUSH2 0x25FB JUMP JUMPDEST GT DUP1 ISZERO PUSH2 0x17FC JUMPI POP PUSH1 0x1C SLOAD PUSH1 0xFF AND JUMPDEST DUP1 ISZERO PUSH2 0x1805 JUMPI POP DUP1 JUMPDEST ISZERO PUSH2 0x1999 JUMPI PUSH1 0x1 PUSH1 0x1 PUSH1 0xA0 SHL SUB DUP8 AND PUSH1 0x0 SWAP1 DUP2 MSTORE PUSH1 0x1 PUSH1 0x20 MSTORE PUSH1 0x40 SWAP1 KECCAK256 SLOAD PUSH2 0x182D SWAP1 DUP7 PUSH2 0x1EC0 JUMP JUMPDEST PUSH1 0x1 PUSH1 0x1 PUSH1 0xA0 SHL SUB DUP9 AND PUSH1 0x0 SWAP1 DUP2 MSTORE PUSH1 0x1 PUSH1 0x20 MSTORE PUSH1 0x40 SWAP1 KECCAK256 SSTORE PUSH2 0x185A DUP8 PUSH2 0x1736 PUSH1 0x64 PUSH2 0x1708 DUP10 PUSH1 0x54 PUSH2 0x1B83 JUMP JUMPDEST PUSH2 0x188E PUSH2 0x186D PUSH1 0x64 PUSH2 0x1708 DUP9 PUSH1 0x5 PUSH2 0x1B83 JUMP JUMPDEST PUSH1 0x4 SLOAD PUSH1 0x1 PUSH1 0x1 PUSH1 0xA0 SHL SUB AND PUSH1 0x0 SWAP1 DUP2 MSTORE PUSH1 0x1 PUSH1 0x20 MSTORE PUSH1 0x40 SWAP1 KECCAK256 SLOAD SWAP1 PUSH2 0x19DA JUMP JUMPDEST PUSH1 0x4 SLOAD PUSH1 0x1 PUSH1 0x1 PUSH1 0xA0 SHL SUB AND PUSH1 0x0 SWAP1 DUP2 MSTORE PUSH1 0x1 PUSH1 0x20 DUP2 SWAP1 MSTORE PUSH1 0x40 SWAP1 SWAP2 KECCAK256 SWAP2 SWAP1 SWAP2 SSTORE PUSH2 0x18E6 SWAP1 PUSH2 0x18C5 SWAP1 PUSH1 0x64 SWAP1 PUSH2 0x1708 SWAP1 DUP10 SWAP1 PUSH2 0x1B83 JUMP JUMPDEST PUSH1 0x5 SLOAD PUSH1 0x1 PUSH1 0x1 PUSH1 0xA0 SHL SUB AND PUSH1 0x0 SWAP1 DUP2 MSTORE PUSH1 0x1 PUSH1 0x20 MSTORE PUSH1 0x40 SWAP1 KECCAK256 SLOAD SWAP1 PUSH2 0x19DA JUMP JUMPDEST PUSH1 0x5 SLOAD PUSH1 0x1 PUSH1 0x1 PUSH1 0xA0 SHL SUB AND PUSH1 0x0 SWAP1 DUP2 MSTORE PUSH1 0x1 PUSH1 0x20 MSTORE PUSH1 0x40 SWAP1 KECCAK256 SSTORE PUSH2 0x1933 PUSH2 0x1914 PUSH1 0x64 PUSH2 0x1708 DUP9 PUSH1 0xA PUSH2 0x1B83 JUMP JUMPDEST PUSH1 0x1 PUSH1 0x1 PUSH1 0xA0 SHL SUB DUP9 AND PUSH1 0x0 SWAP1 DUP2 MSTORE PUSH1 0x1 PUSH1 0x20 MSTORE PUSH1 0x40 SWAP1 KECCAK256 SLOAD SWAP1 PUSH2 0x19DA JUMP JUMPDEST PUSH1 0x1 PUSH1 0x1 PUSH1 0xA0 SHL SUB DUP1 DUP9 AND PUSH1 0x0 DUP2 DUP2 MSTORE PUSH1 0x1 PUSH1 0x20 MSTORE PUSH1 0x40 SWAP1 KECCAK256 SWAP3 SWAP1 SWAP3 SSTORE DUP9 AND PUSH32 0xDDF252AD1BE2C89B69C2B068FC378DAA952BA7F163C4A11628F55A4DF523B3EF PUSH2 0x1983 PUSH1 0x64 PUSH2 0x1708 DUP11 PUSH1 0xA PUSH2 0x1B83 JUMP JUMPDEST PUSH1 0x40 MLOAD SWAP1 DUP2 MSTORE PUSH1 0x20 ADD PUSH1 0x40 MLOAD DUP1 SWAP2 SUB SWAP1 LOG3 PUSH2 0x19A5 JUMP JUMPDEST PUSH2 0x19A5 DUP8 DUP8 DUP8 DUP5 PUSH2 0x1ECC JUMP JUMPDEST POP POP POP POP POP POP POP JUMP JUMPDEST PUSH1 0x0 DUP2 DUP5 DUP5 GT ISZERO PUSH2 0x19D2 JUMPI PUSH1 0x40 MLOAD PUSH3 0x461BCD PUSH1 0xE5 SHL DUP2 MSTORE PUSH1 0x4 ADD PUSH2 0x705 SWAP2 SWAP1 PUSH2 0x24C9 JUMP JUMPDEST POP POP POP SWAP1 SUB SWAP1 JUMP JUMPDEST PUSH1 0x0 PUSH2 0x19E6 DUP3 DUP5 PUSH2 0x25FB JUMP JUMPDEST SWAP4 SWAP3 POP POP POP JUMP JUMPDEST PUSH1 0x1 PUSH1 0x1 PUSH1 0xA0 SHL SUB DUP3 AND PUSH2 0x1A4D JUMPI PUSH1 0x40 MLOAD PUSH3 0x461BCD PUSH1 0xE5 SHL DUP2 MSTORE PUSH1 0x20 PUSH1 0x4 DUP3 ADD MSTORE PUSH1 0x21 PUSH1 0x24 DUP3 ADD MSTORE PUSH32 0x45524332303A206275726E2066726F6D20746865207A65726F20616464726573 PUSH1 0x44 DUP3 ADD MSTORE PUSH1 0x73 PUSH1 0xF8 SHL PUSH1 0x64 DUP3 ADD MSTORE PUSH1 0x84 ADD PUSH2 0x705 JUMP JUMPDEST PUSH1 0x1 PUSH1 0x1 PUSH1 0xA0 SHL SUB DUP3 AND PUSH1 0x0 SWAP1 DUP2 MSTORE PUSH1 0x1 PUSH1 0x20 MSTORE PUSH1 0x40 SWAP1 KECCAK256 SLOAD DUP2 DUP2 LT ISZERO PUSH2 0x1AC1 JUMPI PUSH1 0x40 MLOAD PUSH3 0x461BCD PUSH1 0xE5 SHL DUP2 MSTORE PUSH1 0x20 PUSH1 0x4 DUP3 ADD MSTORE PUSH1 0x22 PUSH1 0x24 DUP3 ADD MSTORE PUSH32 0x45524332303A206275726E20616D6F756E7420657863656564732062616C616E PUSH1 0x44 DUP3 ADD MSTORE PUSH2 0x6365 PUSH1 0xF0 SHL PUSH1 0x64 DUP3 ADD MSTORE PUSH1 0x84 ADD PUSH2 0x705 JUMP JUMPDEST PUSH1 0x1 PUSH1 0x1 PUSH1 0xA0 SHL SUB DUP4 AND PUSH1 0x0 SWAP1 DUP2 MSTORE PUSH1 0x1 PUSH1 0x20 MSTORE PUSH1 0x40 DUP2 KECCAK256 DUP4 DUP4 SUB SWAP1 SSTORE PUSH1 0x7 DUP1 SLOAD DUP5 SWAP3 SWAP1 PUSH2 0x1AF0 SWAP1 DUP5 SWAP1 PUSH2 0x2654 JUMP JUMPDEST SWAP1 SWAP2 SSTORE POP POP PUSH1 0x40 MLOAD DUP3 DUP2 MSTORE PUSH1 0x0 SWAP1 PUSH1 0x1 PUSH1 0x1 PUSH1 0xA0 SHL SUB DUP6 AND SWAP1 PUSH32 0xDDF252AD1BE2C89B69C2B068FC378DAA952BA7F163C4A11628F55A4DF523B3EF SWAP1 PUSH1 0x20 ADD PUSH2 0x11C5 JUMP JUMPDEST PUSH1 0x0 DUP1 SLOAD PUSH1 0x1 PUSH1 0x1 PUSH1 0xA0 SHL SUB DUP4 DUP2 AND PUSH1 0x1 PUSH1 0x1 PUSH1 0xA0 SHL SUB NOT DUP4 AND DUP2 OR DUP5 SSTORE PUSH1 0x40 MLOAD SWAP2 SWAP1 SWAP3 AND SWAP3 DUP4 SWAP2 PUSH32 0x8BE0079C531659141344CD1FD0A4F28419497F9722A3DAAFE3B4186F6B6457E0 SWAP2 SWAP1 LOG3 POP POP JUMP JUMPDEST PUSH1 0x0 PUSH2 0x19E6 DUP3 DUP5 PUSH2 0x2635 JUMP JUMPDEST PUSH1 0x0 PUSH2 0x19E6 DUP3 DUP5 PUSH2 0x2613 JUMP JUMPDEST PUSH1 0x15 DUP1 SLOAD PUSH1 0xFF PUSH1 0xA0 SHL NOT AND PUSH1 0x1 PUSH1 0xA0 SHL OR SWAP1 SSTORE PUSH1 0x10 SLOAD PUSH1 0xC SLOAD PUSH1 0xE SLOAD PUSH1 0x0 SWAP3 PUSH2 0x1BE7 SWAP3 PUSH1 0x2 SWAP3 PUSH2 0x1708 SWAP3 SWAP2 PUSH2 0x1BCF SWAP2 PUSH2 0x25FB JUMP JUMPDEST PUSH2 0x1BD9 SWAP2 SWAP1 PUSH2 0x25FB JUMP JUMPDEST PUSH1 0xE SLOAD PUSH2 0x1708 SWAP1 DUP8 SWAP1 PUSH2 0x1B83 JUMP JUMPDEST SWAP1 POP PUSH1 0x0 PUSH2 0x1BF5 DUP4 DUP4 PUSH2 0x1EC0 JUMP JUMPDEST SWAP1 POP SELFBALANCE PUSH2 0x1C01 DUP3 PUSH2 0x207C JUMP JUMPDEST PUSH1 0x0 PUSH2 0x1C0D SELFBALANCE DUP4 PUSH2 0x1EC0 JUMP JUMPDEST PUSH1 0x4 SLOAD PUSH1 0xC SLOAD PUSH1 0xE SLOAD PUSH1 0x10 SLOAD SWAP4 SWAP5 POP PUSH1 0x0 SWAP4 PUSH1 0x1 PUSH1 0x1 PUSH1 0xA0 SHL SUB SWAP1 SWAP4 AND SWAP3 PUSH2 0x1C51 SWAP3 SWAP2 PUSH2 0x1C39 SWAP2 PUSH2 0x25FB JUMP JUMPDEST PUSH2 0x1C43 SWAP2 SWAP1 PUSH2 0x25FB JUMP JUMPDEST PUSH1 0xC SLOAD PUSH2 0x1708 SWAP1 DUP7 SWAP1 PUSH2 0x1B83 JUMP JUMPDEST PUSH1 0x40 MLOAD PUSH1 0x0 DUP2 DUP2 DUP2 DUP6 DUP8 GAS CALL SWAP3 POP POP POP RETURNDATASIZE DUP1 PUSH1 0x0 DUP2 EQ PUSH2 0x1C8D JUMPI PUSH1 0x40 MLOAD SWAP2 POP PUSH1 0x1F NOT PUSH1 0x3F RETURNDATASIZE ADD AND DUP3 ADD PUSH1 0x40 MSTORE RETURNDATASIZE DUP3 MSTORE RETURNDATASIZE PUSH1 0x0 PUSH1 0x20 DUP5 ADD RETURNDATACOPY PUSH2 0x1C92 JUMP JUMPDEST PUSH1 0x60 SWAP2 POP JUMPDEST POP POP SWAP1 POP DUP1 ISZERO PUSH2 0x1D05 JUMPI PUSH32 0x773FA29CC313BC3704AC993CEA64D1778949027D1CB49A4F04EAD14CAD8F9AA3 DUP7 PUSH2 0x1CEC PUSH1 0xC SLOAD PUSH1 0xE SLOAD PUSH1 0x10 SLOAD PUSH2 0x1CD4 SWAP2 SWAP1 PUSH2 0x25FB JUMP JUMPDEST PUSH2 0x1CDE SWAP2 SWAP1 PUSH2 0x25FB JUMP JUMPDEST PUSH1 0xC SLOAD PUSH2 0x1708 SWAP1 DUP8 SWAP1 PUSH2 0x1B83 JUMP JUMPDEST PUSH1 0x40 DUP1 MLOAD SWAP3 DUP4 MSTORE PUSH1 0x20 DUP4 ADD SWAP2 SWAP1 SWAP2 MSTORE ADD PUSH1 0x40 MLOAD DUP1 SWAP2 SUB SWAP1 LOG1 JUMPDEST PUSH1 0x5 SLOAD PUSH1 0xC SLOAD PUSH1 0xE SLOAD PUSH1 0x10 SLOAD PUSH1 0x0 SWAP4 PUSH1 0x1 PUSH1 0x1 PUSH1 0xA0 SHL SUB AND SWAP3 PUSH2 0x1D46 SWAP3 SWAP1 SWAP2 PUSH2 0x1D2E SWAP2 SWAP1 PUSH2 0x25FB JUMP JUMPDEST PUSH2 0x1D38 SWAP2 SWAP1 PUSH2 0x25FB JUMP JUMPDEST PUSH1 0x10 SLOAD PUSH2 0x1708 SWAP1 DUP8 SWAP1 PUSH2 0x1B83 JUMP JUMPDEST PUSH1 0x40 MLOAD PUSH1 0x0 DUP2 DUP2 DUP2 DUP6 DUP8 GAS CALL SWAP3 POP POP POP RETURNDATASIZE DUP1 PUSH1 0x0 DUP2 EQ PUSH2 0x1D82 JUMPI PUSH1 0x40 MLOAD SWAP2 POP PUSH1 0x1F NOT PUSH1 0x3F RETURNDATASIZE ADD AND DUP3 ADD PUSH1 0x40 MSTORE RETURNDATASIZE DUP3 MSTORE RETURNDATASIZE PUSH1 0x0 PUSH1 0x20 DUP5 ADD RETURNDATACOPY PUSH2 0x1D87 JUMP JUMPDEST PUSH1 0x60 SWAP2 POP JUMPDEST POP POP SWAP1 POP DUP1 ISZERO PUSH2 0x1DFA JUMPI PUSH32 0x773FA29CC313BC3704AC993CEA64D1778949027D1CB49A4F04EAD14CAD8F9AA3 DUP8 PUSH2 0x1DE1 PUSH1 0xC SLOAD PUSH1 0xE SLOAD PUSH1 0x10 SLOAD PUSH2 0x1DC9 SWAP2 SWAP1 PUSH2 0x25FB JUMP JUMPDEST PUSH2 0x1DD3 SWAP2 SWAP1 PUSH2 0x25FB JUMP JUMPDEST PUSH1 0x10 SLOAD PUSH2 0x1708 SWAP1 DUP9 SWAP1 PUSH2 0x1B83 JUMP JUMPDEST PUSH1 0x40 DUP1 MLOAD SWAP3 DUP4 MSTORE PUSH1 0x20 DUP4 ADD SWAP2 SWAP1 SWAP2 MSTORE ADD PUSH1 0x40 MLOAD DUP1 SWAP2 SUB SWAP1 LOG1 JUMPDEST PUSH2 0x1E36 DUP7 PUSH2 0x1E31 PUSH1 0x2 PUSH2 0x1708 PUSH1 0xC SLOAD PUSH1 0xE SLOAD PUSH1 0x10 SLOAD PUSH2 0x1E19 SWAP2 SWAP1 PUSH2 0x25FB JUMP JUMPDEST PUSH2 0x1E23 SWAP2 SWAP1 PUSH2 0x25FB JUMP JUMPDEST PUSH1 0xE SLOAD PUSH2 0x1708 SWAP1 DUP11 SWAP1 PUSH2 0x1B83 JUMP JUMPDEST PUSH2 0x21E5 JUMP JUMPDEST PUSH32 0xFA47F5DE846AEC37740FF146A37F2159977FDE1439426C7C3C4CA798F1A74044 DUP8 DUP8 PUSH2 0x1E8C PUSH1 0x2 PUSH2 0x1708 PUSH1 0xC SLOAD PUSH1 0xE SLOAD PUSH1 0x10 SLOAD PUSH2 0x1E74 SWAP2 SWAP1 PUSH2 0x25FB JUMP JUMPDEST PUSH2 0x1E7E SWAP2 SWAP1 PUSH2 0x25FB JUMP JUMPDEST PUSH1 0xE SLOAD PUSH2 0x1708 SWAP1 DUP12 SWAP1 PUSH2 0x1B83 JUMP JUMPDEST PUSH1 0x40 DUP1 MLOAD SWAP4 DUP5 MSTORE PUSH1 0x20 DUP5 ADD SWAP3 SWAP1 SWAP3 MSTORE SWAP1 DUP3 ADD MSTORE PUSH1 0x60 ADD PUSH1 0x40 MLOAD DUP1 SWAP2 SUB SWAP1 LOG1 POP POP PUSH1 0x15 DUP1 SLOAD PUSH1 0xFF PUSH1 0xA0 SHL NOT AND SWAP1 SSTORE POP POP POP POP POP JUMP JUMPDEST PUSH1 0x0 PUSH2 0x19E6 DUP3 DUP5 PUSH2 0x2654 JUMP JUMPDEST DUP1 PUSH2 0x1ED9 JUMPI PUSH2 0x1ED9 PUSH2 0x22A1 JUMP JUMPDEST PUSH1 0x15 SLOAD PUSH1 0x1 PUSH1 0x1 PUSH1 0xA0 SHL SUB DUP6 DUP2 AND SWAP2 AND EQ DUP1 ISZERO PUSH2 0x1EF3 JUMPI POP DUP1 JUMPDEST ISZERO PUSH2 0x1F25 JUMPI PUSH1 0xC DUP1 SLOAD PUSH1 0xD SSTORE PUSH1 0xE DUP1 SLOAD PUSH1 0xF SSTORE PUSH1 0x10 DUP1 SLOAD PUSH1 0x11 SSTORE PUSH1 0x12 DUP1 SLOAD PUSH1 0x13 SSTORE PUSH1 0x5 SWAP1 SWAP4 SSTORE PUSH1 0x1 SWAP2 DUP3 SWAP1 SSTORE DUP2 SWAP1 SSTORE SWAP1 SSTORE JUMPDEST PUSH1 0x0 PUSH2 0x1F30 DUP4 PUSH2 0x22FC JUMP JUMPDEST PUSH1 0x15 SLOAD SWAP1 SWAP2 POP PUSH1 0x1 PUSH1 0x1 PUSH1 0xA0 SHL SUB DUP7 DUP2 AND SWAP2 AND EQ DUP1 ISZERO PUSH2 0x1F4D JUMPI POP DUP2 JUMPDEST ISZERO PUSH2 0x1F6F JUMPI PUSH2 0x1F6F PUSH1 0xD SLOAD PUSH1 0xC SSTORE PUSH1 0xF SLOAD PUSH1 0xE SSTORE PUSH1 0x11 SLOAD PUSH1 0x10 SSTORE PUSH1 0x13 SLOAD PUSH1 0x12 SSTORE JUMP JUMPDEST PUSH1 0x1 PUSH1 0x1 PUSH1 0xA0 SHL SUB DUP6 AND PUSH1 0x0 SWAP1 DUP2 MSTORE PUSH1 0x1 PUSH1 0x20 MSTORE PUSH1 0x40 SWAP1 KECCAK256 SLOAD PUSH2 0x1F92 SWAP1 DUP5 PUSH2 0x1EC0 JUMP JUMPDEST PUSH1 0x1 PUSH1 0x1 PUSH1 0xA0 SHL SUB DUP1 DUP8 AND PUSH1 0x0 SWAP1 DUP2 MSTORE PUSH1 0x1 PUSH1 0x20 MSTORE PUSH1 0x40 DUP1 DUP3 KECCAK256 SWAP4 SWAP1 SWAP4 SSTORE SWAP1 DUP7 AND DUP2 MSTORE KECCAK256 SLOAD PUSH2 0x1FC1 SWAP1 DUP3 PUSH2 0x19DA JUMP JUMPDEST PUSH1 0x1 PUSH1 0x1 PUSH1 0xA0 SHL SUB DUP6 AND PUSH1 0x0 SWAP1 DUP2 MSTORE PUSH1 0x1 PUSH1 0x20 MSTORE PUSH1 0x40 SWAP1 KECCAK256 SSTORE PUSH2 0x1FFD PUSH2 0x1FE7 DUP5 DUP4 PUSH2 0x1EC0 JUMP JUMPDEST ADDRESS PUSH1 0x0 SWAP1 DUP2 MSTORE PUSH1 0x1 PUSH1 0x20 MSTORE PUSH1 0x40 SWAP1 KECCAK256 SLOAD SWAP1 PUSH2 0x19DA JUMP JUMPDEST ADDRESS PUSH1 0x0 SWAP1 DUP2 MSTORE PUSH1 0x1 PUSH1 0x20 SWAP1 DUP2 MSTORE PUSH1 0x40 SWAP2 DUP3 SWAP1 KECCAK256 SWAP3 SWAP1 SWAP3 SSTORE MLOAD DUP3 DUP2 MSTORE PUSH1 0x1 PUSH1 0x1 PUSH1 0xA0 SHL SUB DUP7 DUP2 AND SWAP3 SWAP1 DUP9 AND SWAP2 PUSH32 0xDDF252AD1BE2C89B69C2B068FC378DAA952BA7F163C4A11628F55A4DF523B3EF SWAP2 ADD PUSH1 0x40 MLOAD DUP1 SWAP2 SUB SWAP1 LOG3 DUP2 PUSH2 0x2075 JUMPI PUSH2 0x2075 PUSH1 0xD SLOAD PUSH1 0xC SSTORE PUSH1 0xF SLOAD PUSH1 0xE SSTORE PUSH1 0x11 SLOAD PUSH1 0x10 SSTORE PUSH1 0x13 SLOAD PUSH1 0x12 SSTORE JUMP JUMPDEST POP POP POP POP POP JUMP JUMPDEST PUSH1 0x40 DUP1 MLOAD PUSH1 0x2 DUP1 DUP3 MSTORE PUSH1 0x60 DUP3 ADD DUP4 MSTORE PUSH1 0x0 SWAP3 PUSH1 0x20 DUP4 ADD SWAP1 DUP1 CALLDATASIZE DUP4 CALLDATACOPY ADD SWAP1 POP POP SWAP1 POP ADDRESS DUP2 PUSH1 0x0 DUP2 MLOAD DUP2 LT PUSH2 0x20B1 JUMPI PUSH2 0x20B1 PUSH2 0x26BC JUMP JUMPDEST PUSH1 0x1 PUSH1 0x1 PUSH1 0xA0 SHL SUB SWAP3 DUP4 AND PUSH1 0x20 SWAP2 DUP3 MUL SWAP3 SWAP1 SWAP3 ADD DUP2 ADD SWAP2 SWAP1 SWAP2 MSTORE PUSH1 0x14 SLOAD PUSH1 0x40 DUP1 MLOAD PUSH4 0x15AB88C9 PUSH1 0xE3 SHL DUP2 MSTORE SWAP1 MLOAD SWAP2 SWAP1 SWAP4 AND SWAP3 PUSH4 0xAD5C4648 SWAP3 PUSH1 0x4 DUP1 DUP4 ADD SWAP4 SWAP2 SWAP3 DUP3 SWAP1 SUB ADD DUP2 DUP7 DUP1 EXTCODESIZE ISZERO DUP1 ISZERO PUSH2 0x2105 JUMPI PUSH1 0x0 DUP1 REVERT JUMPDEST POP GAS STATICCALL ISZERO DUP1 ISZERO PUSH2 0x2119 JUMPI RETURNDATASIZE PUSH1 0x0 DUP1 RETURNDATACOPY RETURNDATASIZE PUSH1 0x0 REVERT JUMPDEST POP POP POP POP PUSH1 0x40 MLOAD RETURNDATASIZE PUSH1 0x1F NOT PUSH1 0x1F DUP3 ADD AND DUP3 ADD DUP1 PUSH1 0x40 MSTORE POP DUP2 ADD SWAP1 PUSH2 0x213D SWAP2 SWAP1 PUSH2 0x236B JUMP JUMPDEST DUP2 PUSH1 0x1 DUP2 MLOAD DUP2 LT PUSH2 0x2150 JUMPI PUSH2 0x2150 PUSH2 0x26BC JUMP JUMPDEST PUSH1 0x1 PUSH1 0x1 PUSH1 0xA0 SHL SUB SWAP3 DUP4 AND PUSH1 0x20 SWAP2 DUP3 MUL SWAP3 SWAP1 SWAP3 ADD ADD MSTORE PUSH1 0x14 SLOAD PUSH2 0x2176 SWAP2 ADDRESS SWAP2 AND DUP5 PUSH2 0x10AD JUMP JUMPDEST PUSH1 0x14 SLOAD PUSH1 0x40 MLOAD PUSH4 0x791AC947 PUSH1 0xE0 SHL DUP2 MSTORE PUSH1 0x1 PUSH1 0x1 PUSH1 0xA0 SHL SUB SWAP1 SWAP2 AND SWAP1 PUSH4 0x791AC947 SWAP1 PUSH2 0x21AF SWAP1 DUP6 SWAP1 PUSH1 0x0 SWAP1 DUP7 SWAP1 ADDRESS SWAP1 TIMESTAMP SWAP1 PUSH1 0x4 ADD PUSH2 0x258A JUMP JUMPDEST PUSH1 0x0 PUSH1 0x40 MLOAD DUP1 DUP4 SUB DUP2 PUSH1 0x0 DUP8 DUP1 EXTCODESIZE ISZERO DUP1 ISZERO PUSH2 0x21C9 JUMPI PUSH1 0x0 DUP1 REVERT JUMPDEST POP GAS CALL ISZERO DUP1 ISZERO PUSH2 0x21DD JUMPI RETURNDATASIZE PUSH1 0x0 DUP1 RETURNDATACOPY RETURNDATASIZE PUSH1 0x0 REVERT JUMPDEST POP POP POP POP POP POP JUMP JUMPDEST PUSH1 0x14 SLOAD PUSH2 0x21FD SWAP1 ADDRESS SWAP1 PUSH1 0x1 PUSH1 0x1 PUSH1 0xA0 SHL SUB AND DUP5 PUSH2 0x10AD JUMP JUMPDEST PUSH1 0x14 SLOAD PUSH1 0x6 SLOAD PUSH1 0x40 MLOAD PUSH4 0xF305D719 PUSH1 0xE0 SHL DUP2 MSTORE ADDRESS PUSH1 0x4 DUP3 ADD MSTORE PUSH1 0x24 DUP2 ADD DUP6 SWAP1 MSTORE PUSH1 0x0 PUSH1 0x44 DUP3 ADD DUP2 SWAP1 MSTORE PUSH1 0x64 DUP3 ADD MSTORE PUSH1 0x1 PUSH1 0x1 PUSH1 0xA0 SHL SUB SWAP2 DUP3 AND PUSH1 0x84 DUP3 ADD MSTORE TIMESTAMP PUSH1 0xA4 DUP3 ADD MSTORE SWAP2 AND SWAP1 PUSH4 0xF305D719 SWAP1 DUP4 SWAP1 PUSH1 0xC4 ADD PUSH1 0x60 PUSH1 0x40 MLOAD DUP1 DUP4 SUB DUP2 DUP6 DUP9 DUP1 EXTCODESIZE ISZERO DUP1 ISZERO PUSH2 0x2268 JUMPI PUSH1 0x0 DUP1 REVERT JUMPDEST POP GAS CALL ISZERO DUP1 ISZERO PUSH2 0x227C JUMPI RETURNDATASIZE PUSH1 0x0 DUP1 RETURNDATACOPY RETURNDATASIZE PUSH1 0x0 REVERT JUMPDEST POP POP POP POP POP PUSH1 0x40 MLOAD RETURNDATASIZE PUSH1 0x1F NOT PUSH1 0x1F DUP3 ADD AND DUP3 ADD DUP1 PUSH1 0x40 MSTORE POP DUP2 ADD SWAP1 PUSH2 0x2075 SWAP2 SWAP1 PUSH2 0x2469 JUMP JUMPDEST PUSH1 0xC SLOAD ISZERO DUP1 ISZERO PUSH2 0x22B1 JUMPI POP PUSH1 0xE SLOAD ISZERO JUMPDEST DUP1 ISZERO PUSH2 0x22BD JUMPI POP PUSH1 0x12 SLOAD ISZERO JUMPDEST DUP1 ISZERO PUSH2 0x22C9 JUMPI POP PUSH1 0x10 SLOAD ISZERO JUMPDEST ISZERO PUSH2 0x22D0 JUMPI JUMP JUMPDEST PUSH1 0xC DUP1 SLOAD PUSH1 0xD SSTORE PUSH1 0xE DUP1 SLOAD PUSH1 0xF SSTORE PUSH1 0x10 DUP1 SLOAD PUSH1 0x11 SSTORE PUSH1 0x12 DUP1 SLOAD PUSH1 0x13 SSTORE PUSH1 0x0 SWAP4 DUP5 SWAP1 SSTORE SWAP2 DUP4 SWAP1 SSTORE DUP3 SWAP1 SSTORE SSTORE JUMP JUMPDEST PUSH1 0x0 DUP1 PUSH2 0x2338 PUSH1 0x64 PUSH2 0x1708 PUSH1 0x10 SLOAD PUSH1 0x12 SLOAD PUSH1 0xE SLOAD PUSH1 0xC SLOAD PUSH2 0x231D SWAP2 SWAP1 PUSH2 0x25FB JUMP JUMPDEST PUSH2 0x2327 SWAP2 SWAP1 PUSH2 0x25FB JUMP JUMPDEST PUSH2 0x2331 SWAP2 SWAP1 PUSH2 0x25FB JUMP JUMPDEST DUP7 SWAP1 PUSH2 0x1B83 JUMP JUMPDEST SWAP1 POP PUSH1 0x0 PUSH2 0x2346 DUP5 DUP4 PUSH2 0x1EC0 JUMP JUMPDEST SWAP5 SWAP4 POP POP POP POP JUMP JUMPDEST PUSH1 0x0 PUSH1 0x20 DUP3 DUP5 SUB SLT ISZERO PUSH2 0x2360 JUMPI PUSH1 0x0 DUP1 REVERT JUMPDEST DUP2 CALLDATALOAD PUSH2 0x19E6 DUP2 PUSH2 0x26D2 JUMP JUMPDEST PUSH1 0x0 PUSH1 0x20 DUP3 DUP5 SUB SLT ISZERO PUSH2 0x237D JUMPI PUSH1 0x0 DUP1 REVERT JUMPDEST DUP2 MLOAD PUSH2 0x19E6 DUP2 PUSH2 0x26D2 JUMP JUMPDEST PUSH1 0x0 DUP1 PUSH1 0x40 DUP4 DUP6 SUB SLT ISZERO PUSH2 0x239B JUMPI PUSH1 0x0 DUP1 REVERT JUMPDEST DUP3 CALLDATALOAD PUSH2 0x23A6 DUP2 PUSH2 0x26D2 JUMP JUMPDEST SWAP2 POP PUSH1 0x20 DUP4 ADD CALLDATALOAD PUSH2 0x23B6 DUP2 PUSH2 0x26D2 JUMP JUMPDEST DUP1 SWAP2 POP POP SWAP3 POP SWAP3 SWAP1 POP JUMP JUMPDEST PUSH1 0x0 DUP1 PUSH1 0x0 PUSH1 0x60 DUP5 DUP7 SUB SLT ISZERO PUSH2 0x23D6 JUMPI PUSH1 0x0 DUP1 REVERT JUMPDEST DUP4 CALLDATALOAD PUSH2 0x23E1 DUP2 PUSH2 0x26D2 JUMP JUMPDEST SWAP3 POP PUSH1 0x20 DUP5 ADD CALLDATALOAD PUSH2 0x23F1 DUP2 PUSH2 0x26D2 JUMP JUMPDEST SWAP3 SWAP6 SWAP3 SWAP5 POP POP POP PUSH1 0x40 SWAP2 SWAP1 SWAP2 ADD CALLDATALOAD SWAP1 JUMP JUMPDEST PUSH1 0x0 DUP1 PUSH1 0x40 DUP4 DUP6 SUB SLT ISZERO PUSH2 0x2415 JUMPI PUSH1 0x0 DUP1 REVERT JUMPDEST DUP3 CALLDATALOAD PUSH2 0x2420 DUP2 PUSH2 0x26D2 JUMP JUMPDEST SWAP5 PUSH1 0x20 SWAP4 SWAP1 SWAP4 ADD CALLDATALOAD SWAP4 POP POP POP JUMP JUMPDEST PUSH1 0x0 PUSH1 0x20 DUP3 DUP5 SUB SLT ISZERO PUSH2 0x2440 JUMPI PUSH1 0x0 DUP1 REVERT JUMPDEST DUP2 CALLDATALOAD DUP1 ISZERO ISZERO DUP2 EQ PUSH2 0x19E6 JUMPI PUSH1 0x0 DUP1 REVERT JUMPDEST PUSH1 0x0 PUSH1 0x20 DUP3 DUP5 SUB SLT ISZERO PUSH2 0x2462 JUMPI PUSH1 0x0 DUP1 REVERT JUMPDEST POP CALLDATALOAD SWAP2 SWAP1 POP JUMP JUMPDEST PUSH1 0x0 DUP1 PUSH1 0x0 PUSH1 0x60 DUP5 DUP7 SUB SLT ISZERO PUSH2 0x247E JUMPI PUSH1 0x0 DUP1 REVERT JUMPDEST DUP4 MLOAD SWAP3 POP PUSH1 0x20 DUP5 ADD MLOAD SWAP2 POP PUSH1 0x40 DUP5 ADD MLOAD SWAP1 POP SWAP3 POP SWAP3 POP SWAP3 JUMP JUMPDEST PUSH1 0x0 DUP1 PUSH1 0x0 DUP1 PUSH1 0x80 DUP6 DUP8 SUB SLT ISZERO PUSH2 0x24AD JUMPI PUSH1 0x0 DUP1 REVERT JUMPDEST POP POP DUP3 CALLDATALOAD SWAP5 PUSH1 0x20 DUP5 ADD CALLDATALOAD SWAP5 POP PUSH1 0x40 DUP5 ADD CALLDATALOAD SWAP4 PUSH1 0x60 ADD CALLDATALOAD SWAP3 POP SWAP1 POP JUMP JUMPDEST PUSH1 0x0 PUSH1 0x20 DUP1 DUP4 MSTORE DUP4 MLOAD DUP1 DUP3 DUP6 ADD MSTORE PUSH1 0x0 JUMPDEST DUP2 DUP2 LT ISZERO PUSH2 0x24F6 JUMPI DUP6 DUP2 ADD DUP4 ADD MLOAD DUP6 DUP3 ADD PUSH1 0x40 ADD MSTORE DUP3 ADD PUSH2 0x24DA JUMP JUMPDEST DUP2 DUP2 GT ISZERO PUSH2 0x2508 JUMPI PUSH1 0x0 PUSH1 0x40 DUP4 DUP8 ADD ADD MSTORE JUMPDEST POP PUSH1 0x1F ADD PUSH1 0x1F NOT AND SWAP3 SWAP1 SWAP3 ADD PUSH1 0x40 ADD SWAP4 SWAP3 POP POP POP JUMP JUMPDEST PUSH1 0x20 DUP1 DUP3 MSTORE DUP2 DUP2 ADD MSTORE PUSH32 0x4F776E61626C653A2063616C6C6572206973206E6F7420746865206F776E6572 PUSH1 0x40 DUP3 ADD MSTORE PUSH1 0x60 ADD SWAP1 JUMP JUMPDEST PUSH1 0x20 DUP1 DUP3 MSTORE PUSH1 0x1B SWAP1 DUP3 ADD MSTORE PUSH32 0x63616E27742073657420746F207468652073616D652076616C75650000000000 PUSH1 0x40 DUP3 ADD MSTORE PUSH1 0x60 ADD SWAP1 JUMP JUMPDEST PUSH1 0x0 PUSH1 0xA0 DUP3 ADD DUP8 DUP4 MSTORE PUSH1 0x20 DUP8 DUP2 DUP6 ADD MSTORE PUSH1 0xA0 PUSH1 0x40 DUP6 ADD MSTORE DUP2 DUP8 MLOAD DUP1 DUP5 MSTORE PUSH1 0xC0 DUP7 ADD SWAP2 POP DUP3 DUP10 ADD SWAP4 POP PUSH1 0x0 JUMPDEST DUP2 DUP2 LT ISZERO PUSH2 0x25DA JUMPI DUP5 MLOAD PUSH1 0x1 PUSH1 0x1 PUSH1 0xA0 SHL SUB AND DUP4 MSTORE SWAP4 DUP4 ADD SWAP4 SWAP2 DUP4 ADD SWAP2 PUSH1 0x1 ADD PUSH2 0x25B5 JUMP JUMPDEST POP POP PUSH1 0x1 PUSH1 0x1 PUSH1 0xA0 SHL SUB SWAP7 SWAP1 SWAP7 AND PUSH1 0x60 DUP6 ADD MSTORE POP POP POP PUSH1 0x80 ADD MSTORE SWAP4 SWAP3 POP POP POP JUMP JUMPDEST PUSH1 0x0 DUP3 NOT DUP3 GT ISZERO PUSH2 0x260E JUMPI PUSH2 0x260E PUSH2 0x26A6 JUMP JUMPDEST POP ADD SWAP1 JUMP JUMPDEST PUSH1 0x0 DUP3 PUSH2 0x2630 JUMPI PUSH4 0x4E487B71 PUSH1 0xE0 SHL PUSH1 0x0 MSTORE PUSH1 0x12 PUSH1 0x4 MSTORE PUSH1 0x24 PUSH1 0x0 REVERT JUMPDEST POP DIV SWAP1 JUMP JUMPDEST PUSH1 0x0 DUP2 PUSH1 0x0 NOT DIV DUP4 GT DUP3 ISZERO ISZERO AND ISZERO PUSH2 0x264F JUMPI PUSH2 0x264F PUSH2 0x26A6 JUMP JUMPDEST POP MUL SWAP1 JUMP JUMPDEST PUSH1 0x0 DUP3 DUP3 LT ISZERO PUSH2 0x2666 JUMPI PUSH2 0x2666 PUSH2 0x26A6 JUMP JUMPDEST POP SUB SWAP1 JUMP JUMPDEST PUSH1 0x1 DUP2 DUP2 SHR SWAP1 DUP3 AND DUP1 PUSH2 0x267F JUMPI PUSH1 0x7F DUP3 AND SWAP2 POP JUMPDEST PUSH1 0x20 DUP3 LT DUP2 EQ ISZERO PUSH2 0x26A0 JUMPI PUSH4 0x4E487B71 PUSH1 0xE0 SHL PUSH1 0x0 MSTORE PUSH1 0x22 PUSH1 0x4 MSTORE PUSH1 0x24 PUSH1 0x0 REVERT JUMPDEST POP SWAP2 SWAP1 POP JUMP JUMPDEST PUSH4 0x4E487B71 PUSH1 0xE0 SHL PUSH1 0x0 MSTORE PUSH1 0x11 PUSH1 0x4 MSTORE PUSH1 0x24 PUSH1 0x0 REVERT JUMPDEST PUSH4 0x4E487B71 PUSH1 0xE0 SHL PUSH1 0x0 MSTORE PUSH1 0x32 PUSH1 0x4 MSTORE PUSH1 0x24 PUSH1 0x0 REVERT JUMPDEST PUSH1 0x1 PUSH1 0x1 PUSH1 0xA0 SHL SUB DUP2 AND DUP2 EQ PUSH2 0x7EB JUMPI PUSH1 0x0 DUP1 REVERT INVALID GASLIMIT MSTORE NUMBER ORIGIN ADDRESS GASPRICE KECCAK256 PUSH21 0x72616E7366657220616D6F756E7420657863656564 PUSH20 0x20616C6C6F77616E636545524332303A20646563 PUSH19 0x656173656420616C6C6F77616E63652062656C PUSH16 0x77207A65726FA2646970667358221220 PUSH2 0xB9DE SDIV 0xA7 SAR BALANCE TIMESTAMP 0xDE BASEFEE PUSH3 0x1F3F60 0xB1 0x22 0xF6 0xC8 PUSH1 0xF BASEFEE PUSH10 0x2C06E3114539D8F66899 PUSH5 0x736F6C6343 STOP ADDMOD SMOD STOP CALLER 0xDD CALLCODE MSTORE 0xAD SHL 0xE2 0xC8 SWAP12 PUSH10 0xC2B068FC378DAA952BA7 CALL PUSH4 0xC4A11628 CREATE2 GAS 0x4D CREATE2 0x23 0xB3 0xEF "
		},
		"gasEstimates": {
			"creation": {
				"codeDepositCost": "2018000",
				"executionCost": "infinite",
				"totalCost": "infinite"
			},
			"external": {
				"allowance(address,address)": "infinite",
				"approve(address,uint256)": "24682",
				"balanceOf(address)": "2589",
				"burn(uint256)": "50901",
				"decimals()": "2357",
				"decreaseAllowance(address,uint256)": "infinite",
				"excludeFromFee(address)": "27884",
				"getIsMaxTokensCanHold()": "2411",
				"getOwner()": "2410",
				"includeInFee(address)": "27932",
				"increaseAllowance(address,uint256)": "27083",
				"isExcludedFromFee(address)": "2633",
				"name()": "infinite",
				"owner()": "2443",
				"renounceOwnership()": "28182",
				"setCoolDownTime(uint256)": "27756",
				"setFees(uint256,uint256,uint256,uint256)": "101386",
				"setFundingAddress(address)": "53190",
				"setIsMaxTokensCanHold(bool)": "29965",
				"setKillDeadBlocks(bool)": "28890",
				"setLiquidityWalletAddress(address)": "28925",
				"setMaxTokensCanHoldPerMille(uint256)": "27733",
				"setMaxTxAmount(uint256)": "27711",
				"setProjectAddress(address)": "28968",
				"setSwapAndLiquifyEnabled(bool)": "27779",
				"setSwapTokensAtAmount(uint256)": "27778",
				"symbol()": "infinite",
				"totalSupply()": "2394",
				"transfer(address,uint256)": "infinite",
				"transferFrom(address,address,uint256)": "infinite",
				"transferOwnership(address)": "infinite",
				"updatePresaleStatus(bool)": "26729"
			},
			"internal": {
				"_approve(address,address,uint256)": "infinite",
				"_burn(address,uint256)": "infinite",
				"_getFeeValues(uint256)": "infinite",
				"_tokenTransfer(address,address,uint256,bool)": "infinite",
				"_transfer(address,address,uint256)": "infinite",
				"addLiquidity(uint256,uint256)": "infinite",
				"launch()": "infinite",
				"launched()": "infinite",
				"removeAllFee()": "125379",
				"restoreAllFee()": "infinite",
				"setBuyFeeAndStore(uint256,uint256,uint256,uint256)": "infinite",
				"swapAndLiquify(uint256)": "infinite",
				"swapTokensForEth(uint256)": "infinite"
			}
		},
		"methodIdentifiers": {
			"allowance(address,address)": "dd62ed3e",
			"approve(address,uint256)": "095ea7b3",
			"balanceOf(address)": "70a08231",
			"burn(uint256)": "42966c68",
			"decimals()": "313ce567",
			"decreaseAllowance(address,uint256)": "a457c2d7",
			"excludeFromFee(address)": "437823ec",
			"getIsMaxTokensCanHold()": "33df542a",
			"getOwner()": "893d20e8",
			"includeInFee(address)": "ea2f0b37",
			"increaseAllowance(address,uint256)": "39509351",
			"isExcludedFromFee(address)": "5342acb4",
			"name()": "06fdde03",
			"owner()": "8da5cb5b",
			"renounceOwnership()": "715018a6",
			"setCoolDownTime(uint256)": "6e16de11",
			"setFees(uint256,uint256,uint256,uint256)": "6fcba377",
			"setFundingAddress(address)": "679adc88",
			"setIsMaxTokensCanHold(bool)": "6a9c5ca2",
			"setKillDeadBlocks(bool)": "54ece0e3",
			"setLiquidityWalletAddress(address)": "c9c9afc5",
			"setMaxTokensCanHoldPerMille(uint256)": "edf9b336",
			"setMaxTxAmount(uint256)": "ec28438a",
			"setProjectAddress(address)": "fce0f928",
			"setSwapAndLiquifyEnabled(bool)": "c49b9a80",
			"setSwapTokensAtAmount(uint256)": "afa4f3b2",
			"symbol()": "95d89b41",
			"totalSupply()": "18160ddd",
			"transfer(address,uint256)": "a9059cbb",
			"transferFrom(address,address,uint256)": "23b872dd",
			"transferOwnership(address)": "f2fde38b",
			"updatePresaleStatus(bool)": "0888d692"
		}
	},
	"abi": [
		{
			"inputs": [],
			"stateMutability": "nonpayable",
			"type": "constructor"
		},
		{
			"anonymous": false,
			"inputs": [
				{
					"indexed": true,
					"internalType": "address",
					"name": "owner",
					"type": "address"
				},
				{
					"indexed": true,
					"internalType": "address",
					"name": "spender",
					"type": "address"
				},
				{
					"indexed": false,
					"internalType": "uint256",
					"name": "value",
					"type": "uint256"
				}
			],
			"name": "Approval",
			"type": "event"
		},
		{
			"anonymous": false,
			"inputs": [
				{
					"indexed": false,
					"internalType": "address",
					"name": "account",
					"type": "address"
				}
			],
			"name": "ExcludedFromFee",
			"type": "event"
		},
		{
			"anonymous": false,
			"inputs": [
				{
					"indexed": false,
					"internalType": "address",
					"name": "account",
					"type": "address"
				}
			],
			"name": "IncludedToFee",
			"type": "event"
		},
		{
			"anonymous": false,
			"inputs": [
				{
					"indexed": true,
					"internalType": "address",
					"name": "previousOwner",
					"type": "address"
				},
				{
					"indexed": true,
					"internalType": "address",
					"name": "newOwner",
					"type": "address"
				}
			],
			"name": "OwnershipTransferred",
			"type": "event"
		},
		{
			"anonymous": false,
			"inputs": [
				{
					"indexed": false,
					"internalType": "uint256",
					"name": "tokensSwapped",
					"type": "uint256"
				},
				{
					"indexed": false,
					"internalType": "uint256",
					"name": "ethCharged",
					"type": "uint256"
				}
			],
			"name": "SwapAndCharged",
			"type": "event"
		},
		{
			"anonymous": false,
			"inputs": [
				{
					"indexed": false,
					"internalType": "uint256",
					"name": "tokensSwapped",
					"type": "uint256"
				},
				{
					"indexed": false,
					"internalType": "uint256",
					"name": "tokensIntoLiqudity",
					"type": "uint256"
				},
				{
					"indexed": false,
					"internalType": "uint256",
					"name": "ethIntoLiqudity",
					"type": "uint256"
				}
			],
			"name": "SwapAndLiquified",
			"type": "event"
		},
		{
			"anonymous": false,
			"inputs": [
				{
					"indexed": false,
					"internalType": "bool",
					"name": "enabled",
					"type": "bool"
				}
			],
			"name": "SwapAndLiquifyEnabledUpdated",
			"type": "event"
		},
		{
			"anonymous": false,
			"inputs": [
				{
					"indexed": true,
					"internalType": "address",
					"name": "from",
					"type": "address"
				},
				{
					"indexed": true,
					"internalType": "address",
					"name": "to",
					"type": "address"
				},
				{
					"indexed": false,
					"internalType": "uint256",
					"name": "value",
					"type": "uint256"
				}
			],
			"name": "Transfer",
			"type": "event"
		},
		{
			"anonymous": false,
			"inputs": [
				{
					"indexed": false,
					"internalType": "uint256",
					"name": "projectFee",
					"type": "uint256"
				},
				{
					"indexed": false,
					"internalType": "uint256",
					"name": "liquidityFee",
					"type": "uint256"
				},
				{
					"indexed": false,
					"internalType": "uint256",
					"name": "burnFee",
					"type": "uint256"
				},
				{
					"indexed": false,
					"internalType": "uint256",
					"name": "fundingFee",
					"type": "uint256"
				}
			],
			"name": "UpdateFees",
			"type": "event"
		},
		{
			"anonymous": false,
			"inputs": [
				{
					"indexed": false,
					"internalType": "uint256",
					"name": "amount",
					"type": "uint256"
				}
			],
			"name": "UpdateSwapTokensAtAmount",
			"type": "event"
		},
		{
			"anonymous": false,
			"inputs": [
				{
					"indexed": false,
					"internalType": "uint256",
					"name": "timeForContract",
					"type": "uint256"
				}
			],
			"name": "UpdatedCoolDowntime",
			"type": "event"
		},
		{
			"anonymous": false,
			"inputs": [
				{
					"indexed": false,
					"internalType": "bool",
					"name": "value",
					"type": "bool"
				}
			],
			"name": "UpdatedIsMaxTokensCanHold",
			"type": "event"
		},
		{
			"anonymous": false,
			"inputs": [
				{
					"indexed": false,
					"internalType": "uint256",
					"name": "perMille",
					"type": "uint256"
				}
			],
			"name": "UpdatedMaxTokensCanHoldPerMille",
			"type": "event"
		},
		{
			"anonymous": false,
			"inputs": [
				{
					"indexed": false,
					"internalType": "uint256",
					"name": "maxTxAmount",
					"type": "uint256"
				}
			],
			"name": "UpdatedMaxTxAmount",
			"type": "event"
		},
		{
			"inputs": [
				{
					"internalType": "address",
					"name": "owner",
					"type": "address"
				},
				{
					"internalType": "address",
					"name": "spender",
					"type": "address"
				}
			],
			"name": "allowance",
			"outputs": [
				{
					"internalType": "uint256",
					"name": "",
					"type": "uint256"
				}
			],
			"stateMutability": "view",
			"type": "function"
		},
		{
			"inputs": [
				{
					"internalType": "address",
					"name": "spender",
					"type": "address"
				},
				{
					"internalType": "uint256",
					"name": "amount",
					"type": "uint256"
				}
			],
			"name": "approve",
			"outputs": [
				{
					"internalType": "bool",
					"name": "",
					"type": "bool"
				}
			],
			"stateMutability": "nonpayable",
			"type": "function"
		},
		{
			"inputs": [
				{
					"internalType": "address",
					"name": "account",
					"type": "address"
				}
			],
			"name": "balanceOf",
			"outputs": [
				{
					"internalType": "uint256",
					"name": "",
					"type": "uint256"
				}
			],
			"stateMutability": "view",
			"type": "function"
		},
		{
			"inputs": [
				{
					"internalType": "uint256",
					"name": "amount",
					"type": "uint256"
				}
			],
			"name": "burn",
			"outputs": [],
			"stateMutability": "nonpayable",
			"type": "function"
		},
		{
			"inputs": [],
			"name": "decimals",
			"outputs": [
				{
					"internalType": "uint8",
					"name": "",
					"type": "uint8"
				}
			],
			"stateMutability": "view",
			"type": "function"
		},
		{
			"inputs": [
				{
					"internalType": "address",
					"name": "spender",
					"type": "address"
				},
				{
					"internalType": "uint256",
					"name": "subtractedValue",
					"type": "uint256"
				}
			],
			"name": "decreaseAllowance",
			"outputs": [
				{
					"internalType": "bool",
					"name": "",
					"type": "bool"
				}
			],
			"stateMutability": "nonpayable",
			"type": "function"
		},
		{
			"inputs": [
				{
					"internalType": "address",
					"name": "account",
					"type": "address"
				}
			],
			"name": "excludeFromFee",
			"outputs": [],
			"stateMutability": "nonpayable",
			"type": "function"
		},
		{
			"inputs": [],
			"name": "getIsMaxTokensCanHold",
			"outputs": [
				{
					"internalType": "bool",
					"name": "",
					"type": "bool"
				}
			],
			"stateMutability": "view",
			"type": "function"
		},
		{
			"inputs": [],
			"name": "getOwner",
			"outputs": [
				{
					"internalType": "address",
					"name": "",
					"type": "address"
				}
			],
			"stateMutability": "view",
			"type": "function"
		},
		{
			"inputs": [
				{
					"internalType": "address",
					"name": "account",
					"type": "address"
				}
			],
			"name": "includeInFee",
			"outputs": [],
			"stateMutability": "nonpayable",
			"type": "function"
		},
		{
			"inputs": [
				{
					"internalType": "address",
					"name": "spender",
					"type": "address"
				},
				{
					"internalType": "uint256",
					"name": "addedValue",
					"type": "uint256"
				}
			],
			"name": "increaseAllowance",
			"outputs": [
				{
					"internalType": "bool",
					"name": "",
					"type": "bool"
				}
			],
			"stateMutability": "nonpayable",
			"type": "function"
		},
		{
			"inputs": [
				{
					"internalType": "address",
					"name": "account",
					"type": "address"
				}
			],
			"name": "isExcludedFromFee",
			"outputs": [
				{
					"internalType": "bool",
					"name": "",
					"type": "bool"
				}
			],
			"stateMutability": "view",
			"type": "function"
		},
		{
			"inputs": [],
			"name": "name",
			"outputs": [
				{
					"internalType": "string",
					"name": "",
					"type": "string"
				}
			],
			"stateMutability": "view",
			"type": "function"
		},
		{
			"inputs": [],
			"name": "owner",
			"outputs": [
				{
					"internalType": "address",
					"name": "",
					"type": "address"
				}
			],
			"stateMutability": "view",
			"type": "function"
		},
		{
			"inputs": [],
			"name": "renounceOwnership",
			"outputs": [],
			"stateMutability": "nonpayable",
			"type": "function"
		},
		{
			"inputs": [
				{
					"internalType": "uint256",
					"name": "timeForContract",
					"type": "uint256"
				}
			],
			"name": "setCoolDownTime",
			"outputs": [],
			"stateMutability": "nonpayable",
			"type": "function"
		},
		{
			"inputs": [
				{
					"internalType": "uint256",
					"name": "projectFee",
					"type": "uint256"
				},
				{
					"internalType": "uint256",
					"name": "liquidityFee",
					"type": "uint256"
				},
				{
					"internalType": "uint256",
					"name": "burnFee",
					"type": "uint256"
				},
				{
					"internalType": "uint256",
					"name": "fundingFee",
					"type": "uint256"
				}
			],
			"name": "setFees",
			"outputs": [],
			"stateMutability": "nonpayable",
			"type": "function"
		},
		{
			"inputs": [
				{
					"internalType": "address",
					"name": "account",
					"type": "address"
				}
			],
			"name": "setFundingAddress",
			"outputs": [],
			"stateMutability": "nonpayable",
			"type": "function"
		},
		{
			"inputs": [
				{
					"internalType": "bool",
					"name": "value",
					"type": "bool"
				}
			],
			"name": "setIsMaxTokensCanHold",
			"outputs": [],
			"stateMutability": "nonpayable",
			"type": "function"
		},
		{
			"inputs": [
				{
					"internalType": "bool",
					"name": "value",
					"type": "bool"
				}
			],
			"name": "setKillDeadBlocks",
			"outputs": [],
			"stateMutability": "nonpayable",
			"type": "function"
		},
		{
			"inputs": [
				{
					"internalType": "address",
					"name": "account",
					"type": "address"
				}
			],
			"name": "setLiquidityWalletAddress",
			"outputs": [],
			"stateMutability": "nonpayable",
			"type": "function"
		},
		{
			"inputs": [
				{
					"internalType": "uint256",
					"name": "perMille",
					"type": "uint256"
				}
			],
			"name": "setMaxTokensCanHoldPerMille",
			"outputs": [],
			"stateMutability": "nonpayable",
			"type": "function"
		},
		{
			"inputs": [
				{
					"internalType": "uint256",
					"name": "maxTxAmount",
					"type": "uint256"
				}
			],
			"name": "setMaxTxAmount",
			"outputs": [],
			"stateMutability": "nonpayable",
			"type": "function"
		},
		{
			"inputs": [
				{
					"internalType": "address",
					"name": "account",
					"type": "address"
				}
			],
			"name": "setProjectAddress",
			"outputs": [],
			"stateMutability": "nonpayable",
			"type": "function"
		},
		{
			"inputs": [
				{
					"internalType": "bool",
					"name": "_enabled",
					"type": "bool"
				}
			],
			"name": "setSwapAndLiquifyEnabled",
			"outputs": [],
			"stateMutability": "nonpayable",
			"type": "function"
		},
		{
			"inputs": [
				{
					"internalType": "uint256",
					"name": "amount",
					"type": "uint256"
				}
			],
			"name": "setSwapTokensAtAmount",
			"outputs": [],
			"stateMutability": "nonpayable",
			"type": "function"
		},
		{
			"inputs": [],
			"name": "symbol",
			"outputs": [
				{
					"internalType": "string",
					"name": "",
					"type": "string"
				}
			],
			"stateMutability": "view",
			"type": "function"
		},
		{
			"inputs": [],
			"name": "totalSupply",
			"outputs": [
				{
					"internalType": "uint256",
					"name": "",
					"type": "uint256"
				}
			],
			"stateMutability": "view",
			"type": "function"
		},
		{
			"inputs": [
				{
					"internalType": "address",
					"name": "recipient",
					"type": "address"
				},
				{
					"internalType": "uint256",
					"name": "amount",
					"type": "uint256"
				}
			],
			"name": "transfer",
			"outputs": [
				{
					"internalType": "bool",
					"name": "",
					"type": "bool"
				}
			],
			"stateMutability": "nonpayable",
			"type": "function"
		},
		{
			"inputs": [
				{
					"internalType": "address",
					"name": "sender",
					"type": "address"
				},
				{
					"internalType": "address",
					"name": "recipient",
					"type": "address"
				},
				{
					"internalType": "uint256",
					"name": "amount",
					"type": "uint256"
				}
			],
			"name": "transferFrom",
			"outputs": [
				{
					"internalType": "bool",
					"name": "",
					"type": "bool"
				}
			],
			"stateMutability": "nonpayable",
			"type": "function"
		},
		{
			"inputs": [
				{
					"internalType": "address",
					"name": "newOwner",
					"type": "address"
				}
			],
			"name": "transferOwnership",
			"outputs": [],
			"stateMutability": "nonpayable",
			"type": "function"
		},
		{
			"inputs": [
				{
					"internalType": "bool",
					"name": "status",
					"type": "bool"
				}
			],
			"name": "updatePresaleStatus",
			"outputs": [],
			"stateMutability": "nonpayable",
			"type": "function"
		},
		{
			"stateMutability": "payable",
			"type": "receive"
		}
	]
}